:020000040000FA
:0400000007EF00F016
:100008007E8276ED3BF051EF3CF0AECFEDF03C0E4A
:100018000001ED19D8B413EF00F015EF00F01EEF52
:1000280000F03E0EED19D8A41CEF00F01EEF00F012
:1000380024EF00F0000E026E640E016E1CEC41F01D
:100048003C0E0001ED19D8A42CEF00F02EEF00F0C3
:1000580051EF00F0EDC0EEF0000EC66F010EC56F57
:10006800EE0EC525D96E000EC621DA6EDF6AC54BC5
:10007800C62BC6BF49EF00F0C65109E10A0EC55D9F
:10008800D8A049EF00F04BEF00F034EF00F0000E7D
:10009800EC6F010EEB6F69EF00F0ECBF5FEF00F063
:1000A800EC5107E10A0EEB5DD8B05DEF00F05FEFB1
:1000B80000F069EF00F0EE0EEB25D96E000EEC2192
:1000C800DA6EEDC0DFFFEB4BEC2B000EC86F000EB5
:1000D800C76FC7C001F0C8C002F0000E046E0A0E58
:1000E800036E74EC41F0B40E0124076E030E022077
:1000F800086EEE0E096E000E0A6E09EC3DF007C0A0
:10010800E9F008C0EAF00001E951EA11D8A48FEF3C
:1001180000F091EF00F03DEF0BF0C3EF0AF0000E96
:10012800976F030E986F3E0E996FFF0E9A6FDBC0A4
:100138009BF0DCC09CF0DDC09DF0DEC09EF0DFC00F
:100148009FF0E0C0A0F0E1C0A1F0E2C0A2F0E3C0DF
:10015800A3F0E4C0A4F0E5C0A5F0E6C0A6F0A2ECC8
:100168003EF0000E026E030E036E35EC41F0030EF6
:10017800026EE80E016E1CEC41F04EEF0BF0000E23
:10018800CCEC3FF001C008F002C009F0000E09BE37
:10019800FF0E0A6E0B6E010ED3EC2DF008C0D3F0E3
:1001A80009C0D4F00AC0D5F00BC0D6F0000E056E19
:1001B800000E066EA00E076E400E086ED3C001F04A
:1001C800D4C002F0D5C003F0D6C004F00FEC21F083
:1001D80001C01AF002C01BF003C01CF004C01DF0DF
:1001E800000E1E6EC00E1F6E7F0E206E440E216E16
:1001F80016EC29F01AC0D7F01BC0D8F01CC0D9F0F3
:100208001DC0DAF0000E0001976F030E986F560EAE
:10021800996FFF0E9A6F000E9C6F010E9B6FD7C0EF
:100228009DF0D8C09EF0D9C09FF0DAC0A0F0D3C02E
:10023800A1F0D4C0A2F0D5C0A3F0D6C0A4F0A2EC1F
:100248003EF0010E026EF40E016E1CEC41F0000E41
:10025800026E030E036E35EC41F04EEF0BF0010E0B
:10026800CCEC3FF001C008F002C009F0000E09BE56
:10027800FF0E0A6E0B6E010ED3EC2DF008C0D3F002
:1002880009C0D4F00AC0D5F00BC0D6F0000E056E38
:10029800000E066EA00E076E400E086ED3C001F069
:1002A800D4C002F0D5C003F0D6C004F00FEC21F0A2
:1002B80001C01AF002C01BF003C01CF004C01DF0FE
:1002C800000E1E6EC00E1F6E7F0E206E440E216E35
:1002D80016EC29F01AC0D7F01BC0D8F01CC0D9F012
:1002E8001DC0DAF0000E0001976F030E986F560ECE
:1002F800996FFF0E9A6F000E9C6F010E9B6FD7C00F
:100308009DF0D8C09EF0D9C09FF0DAC0A0F0D3C04D
:10031800A1F0D4C0A2F0D5C0A3F0D6C0A4F0A2EC3E
:100328003EF0000E026EC80E016E1CEC41F0000E8D
:10033800026E030E036E35EC41F0000E026EC80E1D
:10034800016E1CEC41F04EEF0BF0020ECCEC3FF0CE
:1003580001C008F002C009F0000E09BEFF0E0A6EC7
:100368000B6E010ED3EC2DF008C0D3F009C0D4F009
:100378000AC0D5F00BC0D6F0000E056E000E066E52
:10038800A00E076E400E086ED3C001F0D4C002F074
:10039800D5C003F0D6C004F00FEC21F001C01AF06C
:1003A80002C01BF003C01CF004C01DF0000E1E6E3E
:1003B800C00E1F6E7F0E206E440E216E16EC29F0C3
:1003C8001AC0D7F01BC0D8F01CC0D9F01DC0DAF095
:1003D800D7C001F0D8C002F0D9C003F0DAC004F0E9
:1003E800000E056E000E066EC80E076E420E086EF1
:1003F8000FEC21F001C0C1F002C0C2F003C0C3F08D
:1004080004C0C4F0000E0001976F030E986F560EDB
:10041800996FFF0E9A6F000E9C6F010E9B6FC1C003
:100428009DF0C2C09EF0C3C09FF0C4C0A0F0D3C06E
:10043800A1F0D4C0A2F0D5C0A3F0D6C0A4F0A2EC1D
:100448003EF0000E026EC80E016E1CEC41F02BEF60
:1004580001F082AA32EF02F034EF02F040EF02F02E
:10046800000E976F030E986FB00E996FFF0E9A6F7C
:10047800A2EC3EF02BEF01F0000E976F030E986F81
:10048800970E996FFF0E9A6FA2EC3EF02BEF01F0DA
:1004980082A451EF02F053EF02F05FEF02F0000E7A
:1004A800976F030E986FA40E996FFF0E9A6FA2ECC8
:1004B8003EF02BEF01F0000E976F030E986F8A0E37
:1004C800996FFF0E9A6FA2EC3EF02BEF01F0000E31
:1004D800976F030E986FD10E996FFE0E9A6F83BEB9
:1004E80078EF02F07CEF02F0B96BB92B7EEF02F0E7
:1004F8000001B96BB9519B6F9C6B83BC86EF02F00E
:100508008AEF02F0BA6BBA2B8CEF02F00001BA6BDB
:10051800BA519D6F9E6B83BA94EF02F098EF02F088
:10052800BB6BBB2B9AEF02F00001BB6BBB519F6FFB
:10053800A06B83B8A2EF02F0A6EF02F0BC6BBC2B55
:10054800A8EF02F00001BC6BBC51A16FA26B83B68F
:10055800B0EF02F0B4EF02F0BD6BBD2BB6EF02F0C6
:100568000001BD6BBD51A36FA46B83B4BEEF02F055
:10057800C2EF02F0BE6BBE2BC4EF02F00001BE6BEF
:10058800BE51A56FA66B83B2CCEF02F0D0EF02F09C
:10059800BF6BBF2BD2EF02F00001BF6BBF51A76F3B
:1005A800A86B83B0DAEF02F0DEEF02F0C06BC02B6D
:1005B800E0EF02F00001C06BC051A96FAA6BA2EC7A
:1005C8003EF02BEF01F0829A4EEF0BF0828A4EEF4D
:1005D8000BF082944EEF0BF082844EEF0BF0839E6B
:1005E800000E976F030E986FD10E996FFE0E9A6FDB
:1005F80083BE01EF03F005EF03F0B96BB92B07EFEA
:1006080003F00001B96BB9519B6F9C6B83BC0FEF72
:1006180003F013EF03F0BA6BBA2B15EF03F00001E8
:10062800BA6BBA519D6F9E6B83BA1DEF03F021EF31
:1006380003F0BB6BBB2B23EF03F00001BB6BBB517B
:100648009F6FA06B83B82BEF03F02FEF03F0BC6B09
:10065800BC2B31EF03F00001BC6BBC51A16FA26B46
:1006680083B639EF03F03DEF03F0BD6BBD2B3FEFD1
:1006780003F00001BD6BBD51A36FA46B83B447EFBA
:1006880003F04BEF03F0BE6BBE2B4DEF03F0000100
:10069800BE6BBE51A56FA66B83B255EF03F059EF41
:1006A80003F0BF6BBF2B5BEF03F00001BF6BBF51C3
:1006B800A76FA86B83B063EF03F067EF03F0C06B1D
:1006C800C02B69EF03F00001C06BC051A96FAA6B82
:1006D800A2EC3EF02BEF01F0838E000E976F030E15
:1006E800986FD10E996FFE0E9A6F83BE7EEF03F05E
:1006F80082EF03F0B96BB92B84EF03F00001B96BFB
:10070800B9519B6F9C6B83BC8CEF03F090EF03F0A7
:10071800BA6BBA2B92EF03F00001BA6BBA519D6F16
:100728009E6B83BA9AEF03F09EEF03F0BB6BBB2B73
:10073800A0EF03F00001BB6BBB519F6FA06B83B8A8
:10074800A8EF03F0ACEF03F0BC6BBC2BAEEF03F0EB
:100758000001BC6BBC51A16FA26B83B6B6EF03F06E
:10076800BAEF03F0BD6BBD2BBCEF03F00001BD6B0E
:10077800BD51A36FA46B83B4C4EF03F0C8EF03F0BB
:10078800BE6BBE2BCAEF03F00001BE6BBE51A56F56
:10079800A66B83B2D2EF03F0D6EF03F0BF6BBF2B8B
:1007A800D8EF03F00001BF6BBF51A76FA86B83B0F0
:1007B800E0EF03F0E4EF03F0C06BC02BE6EF03F0CB
:1007C8000001C06BC051A96FAA6BA2EC3EF02BEFE1
:1007D80001F0839C000E976F030E986FD10E996FEE
:1007E800FE0E9A6F83BEFBEF03F0FFEF03F0B96BC9
:1007F800B92B01EF04F00001B96BB9519B6F9C6BE9
:1008080083BC09EF04F00DEF04F0BA6BBA2B0FEFBD
:1008180004F00001BA6BBA519D6F9E6B83BA17EF53
:1008280004F01BEF04F0BB6BBB2B1DEF04F00001C1
:10083800BB6BBB519F6FA06B83B825EF04F029EF0A
:1008480004F0BC6BBC2B2BEF04F00001BC6BBC515B
:10085800A16FA26B83B633EF04F037EF04F0BD6BE2
:10086800BD2B39EF04F00001BD6BBD51A36FA46B24
:1008780083B441EF04F045EF04F0BE6BBE2B47EFA5
:1008880004F00001BE6BBE51A56FA66B83B24FEF9B
:1008980004F053EF04F0BF6BBF2B55EF04F00001D9
:1008A800BF6BBF51A76FA86B83B05DEF04F061EF1A
:1008B80004F0C06BC02B63EF04F00001C06BC051A3
:1008C800A96FAA6BA2EC3EF02BEF01F0838C000E0F
:1008D800976F030E986FD10E996FFE0E9A6F83BEB5
:1008E80078EF04F07CEF04F0B96BB92B7EEF04F0DD
:1008F8000001B96BB9519B6F9C6B83BC86EF04F008
:100908008AEF04F0BA6BBA2B8CEF04F00001BA6BD3
:10091800BA519D6F9E6B83BA94EF04F098EF04F080
:10092800BB6BBB2B9AEF04F00001BB6BBB519F6FF5
:10093800A06B83B8A2EF04F0A6EF04F0BC6BBC2B4D
:10094800A8EF04F00001BC6BBC51A16FA26B83B689
:10095800B0EF04F0B4EF04F0BD6BBD2BB6EF04F0BC
:100968000001BD6BBD51A36FA46B83B4BEEF04F04F
:10097800C2EF04F0BE6BBE2BC4EF04F00001BE6BE7
:10098800BE51A56FA66B83B2CCEF04F0D0EF04F094
:10099800BF6BBF2BD2EF04F00001BF6BBF51A76F35
:1009A800A86B83B0DAEF04F0DEEF04F0C06BC02B65
:1009B800E0EF04F00001C06BC051A96FAA6BA2EC74
:1009C8003EF02BEF01F0839A000E976F030E986F9D
:1009D800D10E996FFE0E9A6F83BEF5EF04F0F9EF12
:1009E80004F0B96BB92BFBEF04F00001B96BB951F6
:1009F8009B6F9C6B83BC03EF05F007EF05F0BA6BA8
:100A0800BA2B09EF05F00001BA6BBA519D6F9E6BC6
:100A180083BA11EF05F015EF05F0BB6BBB2B17EF91
:100A280005F00001BB6BBB519F6FA06B83B81FEF34
:100A380005F023EF05F0BC6BBC2B25EF05F000019A
:100A4800BC6BBC51A16FA26B83B62DEF05F031EFE3
:100A580005F0BD6BBD2B33EF05F00001BD6BBD513B
:100A6800A36FA46B83B43BEF05F03FEF05F0BE6BBB
:100A7800BE2B41EF05F00001BE6BBE51A56FA66B02
:100A880083B249EF05F04DEF05F0BF6BBF2B4FEF79
:100A980005F00001BF6BBF51A76FA86B83B057EF7C
:100AA80005F05BEF05F0C06BC02B5DEF05F00001B2
:100AB800C06BC051A96FAA6BA2EC3EF02BEF01F0FE
:100AC800838A000E976F030E986FD10E996FFE0EF2
:100AD8009A6F83BE72EF05F076EF05F0B96BB92B0C
:100AE80078EF05F00001B96BB9519B6F9C6B83BC23
:100AF80080EF05F084EF05F0BA6BBA2B86EF05F0AE
:100B08000001BA6BBA519D6F9E6B83BA8EEF05F0E8
:100B180092EF05F0BB6BBB2B94EF05F00001BB6BAC
:100B2800BB519F6FA06B83B89CEF05F0A0EF05F059
:100B3800BC6BBC2BA2EF05F00001BC6BBC51A16FD4
:100B4800A26B83B6AAEF05F0AEEF05F0BD6BBD2B27
:100B5800B0EF05F00001BD6BBD51A36FA46B83B46A
:100B6800B8EF05F0BCEF05F0BE6BBE2BBEEF05F08D
:100B78000001BE6BBE51A56FA66B83B2C6EF05F030
:100B8800CAEF05F0BF6BBF2BCCEF05F00001BF6BC0
:100B9800BF51A76FA86B83B0D4EF05F0D8EF05F06D
:100BA800C06BC02BDAEF05F00001C06BC051A96F14
:100BB800AA6BA2EC3EF02BEF01F08398000E976F22
:100BC800030E986FD10E996FFE0E9A6F83BEEFEFEA
:100BD80005F0F3EF05F0B96BB92BF5EF05F000015F
:100BE800B96BB9519B6F9C6B83BCFDEF05F001EFAE
:100BF80006F0BA6BBA2B03EF06F00001BA6BBA51D4
:100C08009D6F9E6B83BA0BEF06F00FEF06F0BB6B80
:100C1800BB2B11EF06F00001BB6BBB519F6FA06BA4
:100C280083B819EF06F01DEF06F0BC6BBC2B1FEF65
:100C380006F00001BC6BBC51A16FA26B83B627EF15
:100C480006F02BEF06F0BD6BBD2B2DEF06F0000173
:100C5800BD6BBD51A36FA46B83B435EF06F039EFBC
:100C680006F0BE6BBE2B3BEF06F00001BE6BBE511B
:100C7800A56FA66B83B243EF06F047EF06F0BF6B94
:100C8800BF2B49EF06F00001BF6BBF51A76FA86BE0
:100C980083B051EF06F055EF06F0C06BC02B57EF4D
:100CA80006F00001C06BC051A96FAA6BA2EC3EF020
:100CB8002BEF01F08388000E976F030E986FD10E0B
:100CC800996FFE0E9A6F83BE6CEF06F070EF06F018
:100CD800B96BB92B72EF06F00001B96BB9519B6F74
:100CE8009C6B83BC7AEF06F07EEF06F0BA6BBA2BEA
:100CF80080EF06F00001BA6BBA519D6F9E6B83BA04
:100D080088EF06F08CEF06F0BB6BBB2B8EEF06F07E
:100D18000001BB6BBB519F6FA06B83B896EF06F0C9
:100D28009AEF06F0BC6BBC2B9CEF06F00001BC6B85
:100D3800BC51A16FA26B83B6A4EF06F0A8EF06F032
:100D4800BD6BBD2BAAEF06F00001BD6BBD51A36FB3
:100D5800A46B83B4B2EF06F0B6EF06F0BE6BBE2B01
:100D6800B8EF06F00001BE6BBE51A56FA66B83B24B
:100D7800C0EF06F0C4EF06F0BF6BBF2BC6EF06F05E
:100D88000001BF6BBF51A76FA86B83B0CEEF06F011
:100D9800D2EF06F0C06BC02BD4EF06F00001C06B99
:100DA800C051A96FAA6BA2EC3EF02BEF01F083961D
:100DB800000E976F030E986FD10E996FFE0E9A6F03
:100DC80083BEE9EF06F0EDEF06F0B96BB92BEFEF54
:100DD80006F00001B96BB9519B6F9C6B83BCF7EFB0
:100DE80006F0FBEF06F0BA6BBA2BFDEF06F0000138
:100DF800BA6BBA519D6F9E6B83BA05EF07F009EF86
:100E080007F0BB6BBB2B0BEF07F00001BB6BBB51B3
:100E18009F6FA06B83B813EF07F017EF07F0BC6B59
:100E2800BC2B19EF07F00001BC6BBC51A16FA26B82
:100E380083B621EF07F025EF07F0BD6BBD2B27EF39
:100E480007F00001BD6BBD51A36FA46B83B42FEFF6
:100E580007F033EF07F0BE6BBE2B35EF07F000014C
:100E6800BE6BBE51A56FA66B83B23DEF07F041EF95
:100E780007F0BF6BBF2B43EF07F00001BF6BBF51FB
:100E8800A76FA86B83B04BEF07F04FEF07F0C06B6D
:100E9800C02B51EF07F00001C06BC051A96FAA6BBE
:100EA800A2EC3EF02BEF01F08386000E976F030E45
:100EB800986FD10E996FFE0E9A6F83BE66EF07F09A
:100EC8006AEF07F0B96BB92B6CEF07F00001B96B4B
:100ED800B9519B6F9C6B83BC74EF07F078EF07F0F8
:100EE800BA6BBA2B7AEF07F00001BA6BBA519D6F53
:100EF8009E6B83BA82EF07F086EF07F0BB6BBB2BC4
:100F080088EF07F00001BB6BBB519F6FA06B83B8E4
:100F180090EF07F094EF07F0BC6BBC2B96EF07F04F
:100F28000001BC6BBC51A16FA26B83B69EEF07F0AA
:100F3800A2EF07F0BD6BBD2BA4EF07F00001BD6B5E
:100F4800BD51A36FA46B83B4ACEF07F0B0EF07F00B
:100F5800BE6BBE2BB2EF07F00001BE6BBE51A56F92
:100F6800A66B83B2BAEF07F0BEEF07F0BF6BBF2BDB
:100F7800C0EF07F00001BF6BBF51A76FA86B83B02C
:100F8800C8EF07F0CCEF07F0C06BC02BCEEF07F02F
:100F98000001C06BC051A96FAA6BA2EC3EF02BEF09
:100FA80001F08394000E976F030E986FD10E996F1E
:100FB800FE0E9A6F83BEE3EF07F0E7EF07F0B96B19
:100FC800B92BE9EF07F00001B96BB9519B6F9C6B26
:100FD80083BCF1EF07F0F5EF07F0BA6BBA2BF7EF28
:100FE80007F00001BA6BBA519D6F9E6B83BAFFEF91
:100FF80007F003EF08F0BB6BBB2B05EF08F000010F
:10100800BB6BBB519F6FA06B83B80DEF08F011EF5E
:1010180008F0BC6BBC2B13EF08F00001BC6BBC5193
:10102800A16FA26B83B61BEF08F01FEF08F0BD6B32
:10103800BD2B21EF08F00001BD6BBD51A36FA46B60
:1010480083B429EF08F02DEF08F0BE6BBE2B2FEF0D
:1010580008F00001BE6BBE51A56FA66B83B237EFD7
:1010680008F03BEF08F0BF6BBF2B3DEF08F0000125
:10107800BF6BBF51A76FA86B83B045EF08F049EF6E
:1010880008F0C06BC02B4BEF08F00001C06BC051DB
:10109800A96FAA6BA2EC3EF02BEF01F08384000E3F
:1010A800976F030E986FD10E996FFE0E9A6F83BEDD
:1010B80060EF08F064EF08F0B96BB92B66EF08F041
:1010C8000001B96BB9519B6F9C6B83BC6EEF08F044
:1010D80072EF08F0BA6BBA2B74EF08F00001BA6B24
:1010E800BA519D6F9E6B83BA7CEF08F080EF08F0D1
:1010F800BB6BBB2B82EF08F00001BB6BBB519F6F32
:10110800A06B83B88AEF08F08EEF08F0BC6BBC2B9D
:1011180090EF08F00001BC6BBC51A16FA26B83B6C5
:1011280098EF08F09CEF08F0BD6BBD2B9EEF08F020
:101138000001BD6BBD51A36FA46B83B4A6EF08F08B
:10114800AAEF08F0BE6BBE2BACEF08F00001BE6B37
:10115800BE51A56FA66B83B2B4EF08F0B8EF08F0E4
:10116800BF6BBF2BBAEF08F00001BF6BBF51A76F71
:10117800A86B83B0C2EF08F0C6EF08F0C06BC02BB5
:10118800C8EF08F00001C06BC051A96FAA6BA2ECB0
:101198003EF02BEF01F08392000E976F030E986FCD
:1011A800D10E996FFE0E9A6F83BEDDEF08F0E1EF66
:1011B80008F0B96BB92BE3EF08F00001B96BB9512E
:1011C8009B6F9C6B83BCEBEF08F0EFEF08F0BA6BFA
:1011D800BA2BF1EF08F00001BA6BBA519D6F9E6B04
:1011E80083BAF9EF08F0FDEF08F0BB6BBB2BFFEFFC
:1011F80008F00001BB6BBB519F6FA06B83B807EF72
:1012080009F00BEF09F0BC6BBC2B0DEF09F00001E6
:10121800BC6BBC51A16FA26B83B615EF09F019EF37
:1012280009F0BD6BBD2B1BEF09F00001BD6BBD5173
:10123800A36FA46B83B423EF09F027EF09F0BE6B0B
:10124800BE2B29EF09F00001BE6BBE51A56FA66B3E
:1012580083B231EF09F035EF09F0BF6BBF2B37EFE1
:1012680009F00001BF6BBF51A76FA86B83B03FEFB8
:1012780009F043EF09F0C06BC02B45EF09F00001FE
:10128800C06BC051A96FAA6BA2EC3EF02BEF01F026
:101298008382000E976F030E986FD10E996FFE0E22
:1012A8009A6F83BE5AEF09F05EEF09F0B96BB92B5C
:1012B80060EF09F00001B96BB9519B6F9C6B83BC5F
:1012C80068EF09F06CEF09F0BA6BBA2B6EEF09F012
:1012D8000001BA6BBA519D6F9E6B83BA76EF09F025
:1012E8007AEF09F0BB6BBB2B7CEF09F00001BB6BFD
:1012F800BB519F6FA06B83B884EF09F088EF09F0AA
:10130800BC6BBC2B8AEF09F00001BC6BBC51A16F10
:10131800A26B83B692EF09F096EF09F0BD6BBD2B77
:1013280098EF09F00001BD6BBD51A36FA46B83B4A6
:10133800A0EF09F0A4EF09F0BE6BBE2BA6EF09F0F1
:101348000001BE6BBE51A56FA66B83B2AEEF09F06C
:10135800B2EF09F0BF6BBF2BB4EF09F00001BF6B10
:10136800BF51A76FA86B83B0BCEF09F0C0EF09F0BD
:10137800C06BC02BC2EF09F00001C06BC051A96F50
:10138800AA6BA2EC3EF02BEF01F08390000E976F52
:10139800030E986FD10E996FFE0E9A6F83BED7EF2A
:1013A80009F0DBEF09F0B96BB92BDDEF09F00001AB
:1013B800B96BB9519B6F9C6B83BCE5EF09F0E9EF02
:1013C80009F0BA6BBA2BEBEF09F00001BA6BBA510E
:1013D8009D6F9E6B83BAF3EF09F0F7EF09F0BB6BD3
:1013E800BB2BF9EF09F00001BB6BBB519F6FA06BE2
:1013F80083B801EF0AF005EF0AF0BC6BBC2B07EFCE
:101408000AF00001BC6BBC51A16FA26B83B60FEF51
:101418000AF013EF0AF0BD6BBD2B15EF0AF00001BF
:10142800BD6BBD51A36FA46B83B41DEF0AF021EF10
:101438000AF0BE6BBE2B23EF0AF00001BE6BBE5153
:10144800A56FA66B83B22BEF0AF02FEF0AF0BF6BE4
:10145800BF2B31EF0AF00001BF6BBF51A76FA86B1C
:1014680083B039EF0AF03DEF0AF0C06BC02B3FEFB5
:101478000AF00001C06BC051A96FAA6BA2EC3EF044
:101488002BEF01F08380000E976F030E986FD10E3B
:10149800996FFE0E9A6F83BE54EF0AF058EF0AF068
:1014A800B96BB92B5AEF0AF00001B96BB9519B6FB0
:1014B8009C6B83BC62EF0AF066EF0AF0BA6BBA2B3A
:1014C80068EF0AF00001BA6BBA519D6F9E6B83BA40
:1014D80070EF0AF074EF0AF0BB6BBB2B76EF0AF0E3
:1014E8000001BB6BBB519F6FA06B83B87EEF0AF006
:1014F80082EF0AF0BC6BBC2B84EF0AF00001BC6BD6
:10150800BC51A16FA26B83B68CEF0AF090EF0AF082
:10151800BD6BBD2B92EF0AF00001BD6BBD51A36FEF
:10152800A46B83B49AEF0AF09EEF0AF0BE6BBE2B51
:10153800A0EF0AF00001BE6BBE51A56FA66B83B287
:10154800A8EF0AF0ACEF0AF0BF6BBF2BAEEF0AF0C2
:101558000001BF6BBF51A76FA86B83B0B6EF0AF04D
:10156800BAEF0AF0C06BC02BBCEF0AF00001C06BE9
:10157800C051A96FAA6BA2EC3EF02BEF01F0C7C0D7
:10158800B9F0C8C0BAF0BA51000AD8B4CEEF0AF020
:101598004EEF0BF0B951000AD8B493EF00F0010AEE
:1015A800D8B4C3EF00F0030AD8B433EF01F0010A4E
:1015B800D8B4A9EF01F0070AD8B42DEF02F0010A58
:1015C800D8B44CEF02F0030AD8B46BEF02F0010A6A
:1015D800D8B4E7EF02F00F0AD8B4EAEF02F0010A34
:1015E800D8B4EDEF02F0030AD8B4F0EF02F0010A24
:1015F800D8B4F3EF02F0070AD8B470EF03F0010A89
:10160800D8B4EDEF03F0030AD8B46AEF04F0010A86
:10161800D8B4E7EF04F01F0AD8B464EF05F0010A64
:10162800D8B4E1EF05F0030AD8B45EEF06F0010A7A
:10163800D8B4DBEF06F0070AD8B458EF07F0010A70
:10164800D8B4D5EF07F0030AD8B452EF08F0010A6E
:10165800D8B4CFEF08F00F0AD8B44CEF09F0010A5C
:10166800D8B4C9EF09F0030AD8B446EF0AF04EEF30
:101678000BF08390C74BC82BC8BF4CEF0BF0C85179
:1016880009E11B0EC75DD8A04CEF0BF04EEF0BF035
:101698006DEF00F0120087EC41F0B1EC41F0000E64
:1016A800F26E000EF26ED09EF298F28A000EF16E83
:1016B800000EF06EF086F088F18AF188830ED56E00
:1016C8008368200E9D6E000E9E6E000E9F6E000EAB
:1016D800A06E000EA06E000EA16E000EA26E92EC1F
:1016E8003CF00C0E0FEC3CF0F28EF28CB896000E2B
:1016F800AC6E190EAF6E000EB06EAC84AC8A000EE4
:10170800AB6EAB88AB8EAE50AE5092EC3CF0010E97
:101718000101086F000EA6EC3DF0000E0201F16F0A
:10172800000EF06F010E01010A6F010ECEEC3CF0C5
:10173800ECC200F1EDC201F1EEC202F1EFC203F119
:10174800000E0101046F000E056FC80E066F420EF1
:10175800076FF9EC1EF000C1E4F201C1E5F202C125
:10176800E6F203C1E7F2000E01018F6F020E906FDF
:101778000A0E916FFF0E926FDBC093F1DCC094F1FB
:10178800DDC095F1DEC096F1DFC097F1E0C098F1B9
:10179800E1C099F1E2C09AF1E3C09BF1E4C09CF189
:1017A800E5C09DF1E6C09EF1E4C29FF1E5C2A0F15B
:1017B800E6C2A1F1E7C2A2F17AEC3EF0000E010107
:1017C800126F020E136F03EC41F00400020EC9EC15
:1017D8003BF02DC1ECF22EC1EDF22FC1EEF230C17B
:1017E800EFF2ECC200F1EDC201F1EEC202F1EFC27C
:1017F80003F1000E0101046F000E056FC80E066F9D
:10180800420E076FF9EC1EF000C1D7F001C1D8F005
:1018180002C1D9F003C1DAF0010EC9EC3BF02DC1C9
:10182800E8F22EC1E9F22FC1EAF230C1EBF2040E60
:1018380001010A6F010ECEEC3CF0200E01018F6F02
:10184800020E906F6B0E916FFF0E926FE8C293F1CC
:10185800E9C294F1EAC295F1EBC296F17AEC3EF056
:10186800200E0101126F020E136F03EC41F002010A
:10187800F251F311D8A443EF0CF045EF0CF09DEFB3
:101888000FF0010E01010A6F010ECEEC3CF0ECC224
:1018980000F1EDC201F1EEC202F1EFC203F1000E58
:1018A8000101046F000E056FC80E066F420E076F28
:1018B800F9EC1EF000C1E4F201C1E5F202C1E6F262
:1018C80003C1E7F2400E01018F6F020E906F240EE4
:1018D800916FFF0E926FDBC093F1DCC094F1DDC015
:1018E80095F1DEC096F1DFC097F1E0C098F1E1C054
:1018F80099F1E2C09AF1E3C09BF1E4C09CF1E5C024
:101908009DF1E6C09EF1E4C29FF1E5C2A0F1E6C2F6
:10191800A1F1E7C2A2F17AEC3EF0400E0101126F8C
:10192800020E136F03EC41F0030E01010A6F010E62
:10193800CEEC3CF00201F051F111D8A4A6EF0CF066
:10194800A8EF0CF0B5EF0CF0C00E01018F6F020E7E
:10195800906FD40E916FFF0E926F7AEC3EF0E0EF2D
:101968000CF0F005F111D8A4BCEF0CF0BEEF0CF0B0
:10197800CBEF0CF0C00E01018F6F020E906FC80EF6
:10198800916FFF0E926F7AEC3EF0E0EF0CF0020ED2
:10199800F019F111D8A4D3EF0CF0D5EF0CF0E0EF6B
:1019A8000CF0C00E01018F6F020E906FBC0E916F8C
:1019B800FF0E926F7AEC3EF0C00E0101126F020E1C
:1019C800136F03EC41F081B8ECEF0CF0EEEF0CF084
:1019D80026EF0EF0000E0101016FFA0E006FE8EC21
:1019E80040F00201F051F111D8A4FDEF0CF0FFEF27
:1019F8000CF05BEF0DF0E3C000F1E4C001F1E5C0CD
:101A080002F1E6C003F1000E0101046F000E056F3C
:101A1800000E066F000E076FCBEC3AF00101D8A05C
:101A280018EF0DF01AEF0DF025EF0DF0000E000184
:101A3800E36F000EE46F6C0EE56F420EE66F26EF63
:101A48000EF0000E196F000E1A6F000E1B6F000EBD
:101A58001C6FE3C01DF1E4C01EF1E5C01FF1E6C034
:101A680020F1ADEC33F00101D8B03DEF0DF03FEFC0
:101A78000DF026EF0EF0E3C019F1E4C01AF1E5C04D
:101A88001BF1E6C01CF1000E1D6F000E1E6F800ECC
:101A98001F6F3F0E206F3FEC3FF019C1E3F01AC1F2
:101AA800E4F01BC1E5F01CC1E6F026EF0EF0F005EE
:101AB800F111D8A462EF0DF064EF0DF0C0EF0DF056
:101AC800DFC000F1E0C001F1E1C002F1E2C003F1C2
:101AD800000E0101046F000E056F000E066F000E68
:101AE800076FCBEC3AF00101D8A07DEF0DF07FEF46
:101AF8000DF08AEF0DF0000E0001DF6F000EE06FB1
:101B08006C0EE16F420EE26F26EF0EF0000E196FB9
:101B1800000E1A6F000E1B6F000E1C6FDFC01DF148
:101B2800E0C01EF1E1C01FF1E2C020F1ADEC33F0DE
:101B38000101D8B0A2EF0DF0A4EF0DF026EF0EF0E2
:101B4800DFC019F1E0C01AF1E1C01BF1E2C01CF1DD
:101B5800000E1D6F000E1E6F800E1F6F3F0E206F50
:101B68003FEC3FF019C1DFF01AC1E0F01BC1E1F012
:101B78001CC1E2F026EF0EF0020EF019F111D8A404
:101B8800C8EF0DF0CAEF0DF026EF0EF0000E0101C0
:101B9800196F000E1A6F000E1B6F000E1C6FDBC052
:101BA8001DF1DCC01EF1DDC01FF1DEC020F1ADEC7F
:101BB80033F00101D8B0E3EF0DF0E5EF0DF001EFE0
:101BC8000EF0DBC019F1DCC01AF1DDC01BF1DEC07C
:101BD8001CF1000E1D6F000E1E6F800E1F6F3F0E52
:101BE800206F3FEC3FF019C1DBF01AC1DCF01BC1DC
:101BF800DDF01CC1DEF026EF0EF0DBC000F1DCC02A
:101C080001F1DDC002F1DEC003F1000E046F000E29
:101C1800056F000E066F000E076FCBEC3AF001015E
:101C2800D8A019EF0EF01BEF0EF026EF0EF0000E05
:101C38000001DB6F000EDC6F400EDD6F410EDE6FC2
:101C480026EF0EF081B62BEF0EF02DEF0EF0E9EF38
:101C58000BF0000E0101016FFA0E006FE8EC40F086
:101C68000201F051F111D8A43CEF0EF03EEF0EF056
:101C7800B5EF0EF0E3C019F1E4C01AF1E5C01BF1AD
:101C8800E6C01CF1000E01011D6F000E1E6F6C0EE8
:101C98001F6F420E206FADEC33F00101D8A057EF53
:101CA8000EF059EF0EF07FEF0EF0000E0001E36F1B
:101CB800000EE46F000EE56F000EE66FDFC000F166
:101CC800E0C001F1E1C002F1E2C003F1000E010140
:101CD800046F000E056F800E066F3F0E076F38EC1D
:101CE8001AF000C1DFF001C1E0F002C1E1F003C168
:101CF800E2F0E9EF0BF0E3C019F1E4C01AF1E5C036
:101D08001BF1E6C01CF1000E1D6F000E1E6F6C0E5D
:101D18001F6F420E206FADEC33F00101D8B097EF82
:101D28000EF099EF0EF09BEF0FF0E3C000F1E4C066
:101D380001F1E5C002F1E6C003F1000E046F000EE8
:101D4800056F800E066F3F0E076F38EC1AF000C162
:101D5800E3F001C1E4F002C1E5F003C1E6F0E9EF08
:101D68000BF0F005F111D8A4BCEF0EF0BEEF0EF0A9
:101D780035EF0FF0DFC019F1E0C01AF1E1C01BF137
:101D8800E2C01CF1000E01011D6F000E1E6F6C0EEB
:101D98001F6F420E206FADEC33F00101D8A0D7EFD2
:101DA8000EF0D9EF0EF0FFEF0EF0000E0001DF6F1E
:101DB800000EE06F000EE16F000EE26FDBC000F175
:101DC800DCC001F1DDC002F1DEC003F1000E01014B
:101DD800046F000E056F800E066F3F0E076F38EC1C
:101DE8001AF000C1DBF001C1DCF002C1DDF003C173
:101DF800DEF0E9EF0BF0DFC019F1E0C01AF1E1C045
:101E08001BF1E2C01CF1000E1D6F000E1E6F6C0E60
:101E18001F6F420E206FADEC33F00101D8B017EF01
:101E28000FF019EF0FF09BEF0FF0DFC000F1E0C0EB
:101E380001F1E1C002F1E2C003F1000E046F000EEF
:101E4800056F800E066F3F0E076F38EC1AF000C161
:101E5800DFF001C1E0F002C1E1F003C1E2F0E9EF17
:101E68000BF0020EF019F111D8A43DEF0FF03FEF7F
:101E78000FF09BEF0FF0DBC019F1DCC01AF1DDC0E9
:101E88001BF1DEC01CF1000E01011D6F000E1E6F5C
:101E9800400E1F6F410E206FADEC33F00101D8A04A
:101EA80058EF0FF05AEF0FF065EF0FF0000E00013A
:101EB800DB6F000EDC6F800EDD6F3F0EDE6FE9EF2B
:101EC8000BF0DBC019F1DCC01AF1DDC01BF1DEC07C
:101ED8001CF1000E1D6F000E1E6F400E1F6F410E8D
:101EE800206FADEC33F00101D8B07DEF0FF07FEF3C
:101EF8000FF09BEF0FF0DBC000F1DCC001F1DDC09B
:101F080002F1DEC003F1000E046F000E056F800EB3
:101F1800066F3F0E076F38EC1AF000C1DBF001C105
:101F2800DCF002C1DDF003C1DEF0E9EF0BF0E9EF10
:101F38000BF0010E01010A6F010ECEEC3CF0ECC271
:101F480000F1EDC201F1EEC202F1EFC203F1000EA1
:101F58000101046F000E056FC80E066F420E076F71
:101F6800F9EC1EF000C1E4F201C1E5F202C1E6F2AB
:101F780003C1E7F2800E01018F6F020E906F240EED
:101F8800916FFF0E926FDBC093F1DCC094F1DDC05E
:101F980095F1DEC096F1DFC097F1E0C098F1E1C09D
:101FA80099F1E2C09AF1E3C09BF1E4C09CF1E5C06D
:101FB8009DF1E6C09EF1E4C29FF1E5C2A0F1E6C240
:101FC800A1F1E7C2A2F17AEC3EF0800E0101126F96
:101FD800020E136F03EC41F082B4F5EF0FF0F7EF48
:101FE8000FF0FEEF0FF0F70E0201E06FFF0EE16F4A
:101FF80003EF10F0FB0E0201E06FFF0EE16F82BAF3
:1020080008EF10F00AEF10F010EF10F0F70EE26F83
:10201800FF0EE36F14EF10F0FB0EE26FFF0EE36F9D
:10202800020E01010A6F010ECEEC3CF0A00E010178
:102038008F6F020E906FE00E916FFF0E926FE2C2EB
:1020480093F1E3C294F1E0C295F1E1C296F17AEC22
:102058003EF0A00E0101126F020E136F03EC41F067
:10206800030E01010A6F010ECEEC3CF0600E010177
:102078008F6F020E906F7D0E916FFF0E926F7AEC4C
:102088003EF0600E0101126F020E136F03EC41F077
:10209800E9EF0BF007EF00F0000E01016B6F43C191
:1020A8006EF144C16FF145C170F146C171F171BF64
:1020B80062EF10F060EF10F076EF10F0010E6B6F2A
:1020C8006EC100F16FC101F170C102F171C103F17C
:1020D800AFEC40F000C16EF101C16FF102C170F1C7
:1020E80003C171F1000E01016D6F000E6C6FB9C173
:1020F8005BF1BAC15CF16B51D8B485EF10F087EF92
:1021080010F09BEF10F06B51D8A48DEF10F08FEF0B
:1021180010F095EF10F0000E516F2B0E506F99EFE5
:1021280010F0000E516F2D0E506F50C16BF16EC143
:1021380000F16FC101F170C102F171C103F135EC19
:1021480035F0010100050111D8A4ADEF10F0AFEF93
:1021580010F0E1EF10F06B51D8B4B5EF10F0B7EF15
:1021680010F0C0EF10F06BC164F35B07D8A05C07F8
:10217800000E6D6F010E6C6F640E6C25006F030E00
:102188006D21016FEB0E026FFF0E036FEEEC3FF057
:102198000101FD0E5B27FF0E5C2341C110F142C116
:1021A80011F1640E126F030E136F5BC114F15CC161
:1021B80015F1C4EC39F04FEF15F06EC100F16FC1A5
:1021C80001F170C102F171C103F135EC35F0010183
:1021D80000510111D8A4F3EF10F0F5EF10F014EF4F
:1021E80011F06B51D8B4FBEF10F0FDEF10F006EFD3
:1021F80011F06BC164F35B07D8A05C07000E6D6F2C
:10220800010E6C6F640E6C25006F030E6D21016F5B
:10221800EF0E026FFF0E036FEEEC3FF0CCEF10F005
:10222800000E726F000E736F800E746F3F0E756F25
:10223800000E5A6F000E596F6EC100F16FC101F1A7
:1022480070C102F171C103F1000E046F000E056F39
:10225800000E066F000E076FCBEC3AF00101D8B004
:1022680038EF11F03AEF11F01CEF12F046EF11F0D1
:102278005DC172F15EC173F15FC174F160C175F146
:10228800594B5A2B72C100F173C101F174C102F1AB
:1022980075C103F1000E046F000E056F200E066F66
:1022A800410E076FF9EC1EF000C15DF101C15EF14E
:1022B80002C15FF103C160F101015D516E5D006F04
:1022C8005E516F59016F5F517059026F60517159BA
:1022D800036F3FEC3DF0010103BF7EEF11F00351A6
:1022E8000211011109E1020E005DD8A07EEF11F084
:1022F80080EF11F03CEF11F05DC119F15EC11AF1E8
:102308005FC11BF160C11CF16EC11DF16FC11EF1EF
:1023180070C11FF171C120F1ADEC33F00101D8A0FB
:1023280098EF11F09AEF11F03CEF11F072516E5DD9
:10233800006F73516F59016F74517059026F755165
:102348007159036F3FEC3DF0010103BFB9EF11F084
:1023580003510211011107E1020E005DD8B0B7EF79
:1023680011F0B9EF11F002EF12F072C16EF173C102
:102378006FF174C170F175C171F11CEF12F072C187
:1023880014F173C115F174C116F175C117F1000E7E
:10239800186F000E196F200E1A6F410E1B6F48EC54
:1023A80027F014C172F115C173F116C174F117C188
:1023B80075F101015907D8A05A0772516E5D006F77
:1023C80073516F59016F74517059026F755171597A
:1023D800036F3FEC3DF0010103BF00EF12F0035122
:1023E8000211011107E1020E005DD8B0FEEF11F0F5
:1023F80000EF12F002EF12F0B9EF11F06EC119F10F
:102408006FC11AF170C11BF171C11CF172C11DF1CC
:1024180073C11EF174C11FF175C120F1ADEC33F029
:102428000101D8A01AEF12F01CEF12F0C3EF11F05F
:1024380047C153F153C154F1BCBF25EF12F027EF48
:1024480012F02DEF12F0BBC14CF1BCC14DF131EFD0
:1024580012F0000E4D6F060E4C6F4CC157F14DC176
:1024680058F1574B582B660E5419D8A43EEF12F06A
:1024780040EF12F060EF12F05ABF47EF12F045EF4D
:1024880012F053EF12F0000E726F000E736F800E91
:10249800746F3F0E756F000E5A6F000E596F670EFE
:1024A8005319D8B45AEF12F05CEF12F060EF12F043
:1024B800595157275A515823000E626F000E616F09
:1024C8006EC163F16FC164F170C165F171C166F1EC
:1024D80072C15DF173C15EF174C15FF175C160F1E4
:1024E800F2EF12F063C114F164C115F165C116F180
:1024F80066C117F172C118F173C119F174C11AF1EB
:1025080075C11BF148EC27F014C12DF115C12EF14E
:1025180016C12FF117C130F1E3EC2AF02DC167F194
:102528002EC168F12FC169F130C16AF167C100F1AC
:1025380068C101F169C102F16AC103F129EC33F004
:1025480000C155F101C156F163C119F164C11AF115
:1025580065C11BF166C11CF167C104F168C105F1D1
:1025680069C106F16AC107F172C100F173C101F1D5
:1025780074C102F175C103F1F9EC1EF000C11DF13F
:1025880001C11EF102C11FF103C120F13FEC3FF070
:1025980019C163F11AC164F11BC165F11CC166F16F
:1025A80072C114F173C115F174C116F175C117F137
:1025B800000E0101186F000E196F200E1A6F410EE0
:1025C8001B6F48EC27F014C172F115C173F116C1E5
:1025D80074F117C175F10101614B622B5751615DAF
:1025E8006251800A486F5851800A4859D8A0FFEFB5
:1025F80012F001EF13F076EF12F072C100F173C11F
:1026080001F174C102F175C103F1000E046F000EEF
:10261800056FA00E066F400E076FF9EC1EF000C1A3
:1026280067F101C168F102C169F103C16AF163C1CF
:1026380019F164C11AF165C11BF166C11CF167C1CA
:102648001DF168C11EF169C11FF16AC120F1ADEC2D
:1026580033F00101D8B033EF13F035EF13F03FEF4B
:1026680013F0000E676F000E686F000E696F000EA2
:102678006A6F68EF13F063C100F164C101F165C1CD
:1026880002F166C103F167C104F168C105F169C1CE
:1026980006F16AC107F1CBEC3AF00101D8A057EF77
:1026A80013F059EF13F068EF13F055B15EEF13F024
:1026B80060EF13F068EF13F0000E676F000E686F9D
:1026C800000E696F000E6A6F6EC100F16FC101F1F3
:1026D80070C102F171C103F167C104F168C105F16C
:1026E80069C106F16AC107F138EC1AF000C163F15B
:1026F80001C164F102C165F103C166F163C119F159
:1027080064C11AF165C11BF166C11CF1000E01011B
:10271800046F000E056F200E066F410E076F5DC136
:1027280000F15EC101F15FC102F160C103F1F9EC92
:102738001EF000C11DF101C11EF102C11FF103C14C
:1027480020F1ADEC33F00101D8A0ADEF13F0AFEFFD
:1027580013F0D7EF13F0594B5A2B5DC100F15EC14E
:1027680001F15FC102F160C103F1000E046F000EB8
:10277800056F200E066F410E076FF9EC1EF000C1C1
:102788005DF101C15EF102C15FF103C160F1660E46
:1027980001015419D8A4D3EF13F0D5EF13F0D7EFF4
:1027A80013F0574B582B5DC172F15EC173F15FC1D5
:1027B80074F160C175F159C14AF15AC14BF1000E6B
:1027C800526F000E4F6F000E4E6F000E626F000EBC
:1027D800616FD5EF14F063C114F164C115F165C1DF
:1027E80016F166C117F172C118F173C119F174C1FC
:1027F8001AF175C11BF148EC27F014C12DF115C170
:102808002EF116C12FF117C130F1E3EC2AF02DC1DA
:1028180067F12EC168F12FC169F130C16AF167C152
:1028280000F168C101F169C102F16AC103F129EC43
:1028380033F0010101BF2CEF14F0015107E10A0E3A
:10284800005DD8B02AEF14F02CEF14F03CEF14F030
:1028580067C100F168C101F169C102F16AC103F100
:1028680029EC33F000C155F101C156F140EF14F0E5
:10287800000E566F090E556F01015251D8A447EF4B
:1028880014F049EF14F071EF14F04BBF50EF14F04F
:102898004EEF14F071EF14F0640E6C25D96E030E30
:1028A8006D21DA6E2E0EDF6E6C4B6D2B5B07D8A098
:1028B8005C07010E526F71EF14F0640E6C25D96E2F
:1028C800030E6D21DA6E300EDF6E6C4B6D2B5B07DD
:1028D800D8A05C074E07D8A04F074E514F11D8A477
:1028E80078EF14F07AEF14F061EF14F0640E6C25B1
:1028F800D96E030E6D21DA6E5551300FDF6E6C4BB9
:102908006D2B5B07D8A05C0763C119F164C11AF18C
:1029180065C11BF166C11CF167C104F168C105F10D
:1029280069C106F16AC107F172C100F173C101F111
:1029380074C102F175C103F1F9EC1EF000C11DF17B
:1029480001C11EF102C11FF103C120F13FEC3FF0AC
:1029580019C163F11AC164F11BC165F11CC166F1AB
:1029680072C114F173C115F174C116F175C117F173
:10297800000E0101186F000E196F200E1A6F410E1C
:102988001B6F48EC27F014C172F115C173F116C121
:1029980074F117C175F101014A07D8A04B07614BC3
:1029A800622B5751615D6251800A486F5851800A05
:1029B8004859D8B0E2EF14F0E4EF14F0F2EF14F055
:1029C8006DBFF0EF14F06D5109E14B0E6C5DD8A0AE
:1029D800F0EF14F0F2EF14F0EFEF13F0000E626F67
:1029E8004F0E616F640E6125D96E030E6221DA6E97
:1029F800DF6A640E486F030E496F6C51485F6D5172
:102A0800495B61514825006F62514921016F640E8D
:102A1800026F030E036F6CC104F16DC105F128EC60
:102A28003EF001016C51615D6C6F6D5162596D6FC3
:102A38006B51D8A422EF15F025EF15F0010E26EF03
:102A480015F0000E616F626B6B51D8B42EEF15F064
:102A580030EF15F03BEF15F06C07D8A06D07640E4A
:102A68006C25D96E030E6D21DA6E6BC1DFFF6151E3
:102A78005B5F62515C5B41C110F142C111F1640EB0
:102A88006C25126F030E6D21136F5BC114F15CC1CD
:102A980015F1C4EC39F01200000E716E49C074F0E3
:102AA8004AC075F04BC076F04CC077F077BE61EF46
:102AB80015F05FEF15F075EF15F0010E716E74C02B
:102AC80001F075C002F076C003F077C004F0CCECDA
:102AD80040F001C074F002C075F003C076F004C085
:102AE80077F0000E736E000E726EB9C161F0BAC154
:102AF80062F07150D8B483EF15F085EF15F099EFB7
:102B080015F07150D8A48BEF15F08DEF15F093EFF9
:102B180015F0000E576E2B0E566E97EF15F0000E3F
:102B2800576E2D0E566E56C071F074C001F075C008
:102B380002F076C003F077C004F0B5EC35F001047C
:102B48000210D8A4AAEF15F0ACEF15F0DDEF15F0E0
:102B58007150D8B4B2EF15F0B4EF15F0BDEF15F021
:102B680071C064F36106D8A06206000E736E010E90
:102B7800726E640E7224016E030E7320026EEB0EE9
:102B8800036EFF0E046E50EC40F0FD0E6126FF0E42
:102B9800622247C011F048C012F0640E136E030E93
:102BA800146E61C015F062C016F074EC3AF037EF9D
:102BB8001AF074C001F075C002F076C003F077C057
:102BC80004F0B5EC35F001500210D8A4EEEF15F082
:102BD800F0EF15F00FEF16F07150D8B4F6EF15F0CE
:102BE800F8EF15F001EF16F071C064F36106D8A094
:102BF8006206000E736E010E726E640E7224016E10
:102C0800030E7320026EEF0E036EFF0E046E50EC7F
:102C180040F0C9EF15F0000E786E000E796E800E48
:102C28007A6E3F0E7B6E000E606E000E5F6E74C093
:102C380001F075C002F076C003F077C004F0000E12
:102C4800056E000E066E000E076E000E086E21EC73
:102C58003BF0D8B032EF16F034EF16F00FEF17F064
:102C680040EF16F063C078F064C079F065C07AF080
:102C780066C07BF05F4A602A78C001F079C002F034
:102C88007AC003F07BC004F0000E056E000E066EDD
:102C9800200E076E410E086E0FEC21F001C063F0A4
:102CA80002C064F003C065F004C066F06350745C51
:102CB800016E64507558026E65507658036E665002
:102CC8007758046E73EC3DF004BE76EF16F00450AE
:102CD8000310021009E1020E015CD8A076EF16F08D
:102CE80078EF16F036EF16F063C01AF064C01BF0E8
:102CF80065C01CF066C01DF074C01EF075C01FF0E2
:102D080076C020F077C021F0B3EC34F0D8A08FEF74
:102D180016F091EF16F036EF16F07850745C016EED
:102D280079507558026E7A507658036E7B507758F2
:102D3800046E73EC3DF004BEAFEF16F004500310C0
:102D4800021007E1020E015CD8B0ADEF16F0AFEF4C
:102D580016F0F6EF16F078C074F079C075F07AC006
:102D680076F07BC077F00FEF17F078C01AF079C0D3
:102D78001BF07AC01CF07BC01DF0000E1E6E000E0A
:102D88001F6E200E206E410E216E16EC29F01AC01F
:102D980078F01BC079F01CC07AF01DC07BF05F068C
:102DA800D8A060067850745C016E79507558026E30
:102DB8007A507658036E7B507758046E73EC3DF06A
:102DC80004BEF4EF16F004500310021007E1020EDF
:102DD800015CD8B0F2EF16F0F4EF16F0F6EF16F04B
:102DE800AFEF16F074C01AF075C01BF076C01CF077
:102DF80077C01DF078C01EF079C01FF07AC020F0AF
:102E08007BC021F0B3EC34F0D8A00DEF17F00FEF32
:102E180017F0B9EF16F04DC059F059C05AF001013A
:102E2800BCBF19EF17F01BEF17F021EF17F0BBC16C
:102E380052F0BCC153F025EF17F0000E536E060E8A
:102E4800526E52C05DF053C05EF05D4A5E2A660E57
:102E58005A18D8A432EF17F034EF17F054EF17F0E0
:102E680060BE3BEF17F039EF17F047EF17F0000E91
:102E7800786E000E796E800E7A6E3F0E7B6E000EB5
:102E8800606E000E5F6E670E5918D8B44EEF17F0DB
:102E980050EF17F054EF17F05F505D2660505E2238
:102EA800000E686E000E676E74C069F075C06AF037
:102EB80076C06BF077C06CF078C063F079C064F0CE
:102EC8007AC065F07BC066F0E4EF17F069C01AF0CD
:102ED8006AC01BF06BC01CF06CC01DF078C01EF0FF
:102EE80079C01FF07AC020F07BC021F016EC29F0E1
:102EF8001AC033F01BC034F01CC035F01DC036F0CA
:102F0800EEEC2BF033C06DF034C06EF035C06FF0CE
:102F180036C070F06DC001F06EC002F06FC003F0F3
:102F280070C004F030EC34F001C05BF002C05CF01B
:102F380069C01AF06AC01BF06BC01CF06CC01DF0B1
:102F48006DC005F06EC006F06FC007F070C008F0E5
:102F580078C001F079C002F07AC003F07BC004F0B9
:102F68000FEC21F001C01EF002C01FF003C020F0DA
:102F780004C021F087EC3FF01AC069F01BC06AF06A
:102F88001CC06BF01DC06CF078C01AF079C01BF043
:102F98007AC01CF07BC01DF0000E1E6E000E1F6E66
:102FA800200E206E410E216E16EC29F01AC078F022
:102FB8001BC079F01CC07AF01DC07BF0674A682AF4
:102FC8005D50675C6850800A4E6E5E50800A4E58AD
:102FD800D8A0F1EF17F0F3EF17F06AEF17F078C009
:102FE80001F079C002F07AC003F07BC004F0000E53
:102FF800056E000E066EA00E076E400E086E0FECF2
:1030080021F001C06DF002C06EF003C06FF004C083
:1030180070F069C01AF06AC01BF06BC01CF06CC07D
:103028001DF06DC01EF06EC01FF06FC020F070C0A4
:1030380021F0B3EC34F0D8B024EF18F026EF18F0F4
:1030480030EF18F0000E6D6E000E6E6E000E6F6E93
:10305800000E706E58EF18F069C001F06AC002F0F7
:103068006BC003F06CC004F06DC005F06EC006F0D4
:103078006FC007F070C008F021EC3BF0D8A047EF14
:1030880018F049EF18F058EF18F05BB04EEF18F051
:1030980050EF18F058EF18F0000E6D6E000E6E6EBF
:1030A800000E6F6E000E706E74C001F075C002F0F5
:1030B80076C003F077C004F06DC005F06EC006F06E
:1030C8006FC007F070C008F099EC1CF001C069F0FF
:1030D80002C06AF003C06BF004C06CF069C01AF05B
:1030E8006AC01BF06BC01CF06CC01DF0000E056EB2
:1030F800000E066E200E076E410E086E63C001F0CA
:1031080064C002F065C003F066C004F00FEC21F063
:1031180001C01EF002C01FF003C020F004C021F05F
:10312800B3EC34F0D8A09BEF18F09DEF18F0C4EF83
:1031380018F05F4A602A63C001F064C002F065C0FD
:1031480003F066C004F0000E056E000E066E200E39
:10315800076E410E086E0FEC21F001C063F002C04B
:1031680064F003C065F004C066F0660E5A18D8A46F
:10317800C0EF18F0C2EF18F0C4EF18F05D4A5E2AED
:1031880063C078F064C079F065C07AF066C07BF0FF
:103198005FC050F060C051F0000E586E000E556EC2
:1031A800000E546E000E686E000E676EBEEF19F0CA
:1031B80069C01AF06AC01BF06BC01CF06CC01DF02F
:1031C80078C01EF079C01FF07AC020F07BC021F0D3
:1031D80016EC29F01AC033F01BC034F01CC035F0CF
:1031E8001DC036F0EEEC2BF033C06DF034C06EF03D
:1031F80035C06FF036C070F06DC001F06EC002F0DF
:103208006FC003F070C004F030EC34F002BE18EF69
:1032180019F0025007E10A0E015CD8B016EF19F058
:1032280018EF19F028EF19F06DC001F06EC002F028
:103238006FC003F070C004F030EC34F001C05BF0F4
:1032480002C05CF02CEF19F0000E5C6E090E5B6E8C
:103258005850D8A432EF19F034EF19F05CEF19F098
:1032680051BE3BEF19F039EF19F05CEF19F0640E1D
:103278007224D96E030E7320DA6E2E0EDF6E724A38
:10328800732A6106D8A06206010E586E5CEF19F029
:10329800640E7224D96E030E7320DA6E300EDF6E60
:1032A800724A732A6106D8A062065406D8A0550649
:1032B80054505510D8A463EF19F065EF19F04CEF8E
:1032C80019F0640E7224D96E030E7320DA6E5B5007
:1032D800300FDF6E724A732A6106D8A0620669C091
:1032E8001AF06AC01BF06BC01CF06CC01DF06DC0FA
:1032F80005F06EC006F06FC007F070C008F078C027
:1033080001F079C002F07AC003F07BC004F00FEC42
:1033180021F001C01EF002C01FF003C020F004C05D
:1033280021F087EC3FF01AC069F01BC06AF01CC09E
:103338006BF01DC06CF078C01AF079C01BF07AC031
:103348001CF07BC01DF0000E1E6E000E1F6E200EBE
:10335800206E410E216E16EC29F01AC078F01BC0C1
:1033680079F01CC07AF01DC07BF05006D8A0510639
:10337800674A682A5D50675C6850800A4E6E5E50E6
:10338800800A4E58D8B0CBEF19F0CDEF19F0DBEF2B
:1033980019F073BED9EF19F0735009E14B0E725C46
:1033A800D8A0D9EF19F0DBEF19F0DCEF18F0000E18
:1033B800686E4F0E676E640E6724D96E030E682020
:1033C800DA6EDF6A640E4E6E030E4F6E72504E5EFA
:1033D80073504F5A67504E24016E68504F20026E4A
:1033E800640E036E030E046E72C005F073C006F01F
:1033F800F2EC3EF07250675C726E73506858736EF0
:103408007150D8A40AEF1AF00DEF1AF0010E0EEF62
:103418001AF0000E676E686A7150D8B416EF1AF089
:1034280018EF1AF023EF1AF07206D8A07306640E8C
:103438007224D96E030E7320DA6E71C0DFFF6750F5
:10344800615E6850625A47C011F048C012F0640EBD
:103458007224136E030E7320146E61C015F062C0DF
:1034680016F074EC3AF0120001010351800B0C6F56
:10347800035103250E6F02AF44EF1AF046EF1AF01E
:1034880047EF1AF00E810E51D8B44DEF1AF04FEFF6
:103498001AF064EF1AF00E29D8A455EF1AF057EF76
:1034A8001AF05FEF1AF0000E006F000E016F000EA9
:1034B800026F000E036F028F000E036F6CEF1AF09D
:1034C800000E006F000E016F000E026F000E036FFA
:1034D8000751800B0D6F0C510D19D8B476EF1AF007
:1034E80078EF1AF079EF1AF00C8D075107250D6F58
:1034F80006AF81EF1AF083EF1AF084EF1AF00D810E
:103508000D51D8B48AEF1AF08CEF1AF0A1EF1AF027
:103518000D29D8A492EF1AF094EF1AF09CEF1AF044
:10352800000E046F000E056F000E066F000E076F89
:10353800068F000E076FA9EF1AF0000E046F000E39
:10354800056F000E066F000E076F0E510D5DD8B0A7
:10355800B0EF1AF0B2EF1AF0D9EF1AF00CADB7EFDE
:103568001AF0B9EF1AF0BBEF1AF0800E0C1B0EC15F
:103578000FF10DC10EF10FC10DF100C10FF104C122
:1035880000F10FC104F101C10FF105C101F10FC133
:1035980005F102C10FF106C102F10FC106F103C125
:1035A8000FF107C103F10FC107F1000E0F6F0E51A4
:1035B8000DC108F1096B085F000E095B09BFEEEF4A
:1035C8001AF0095109E11A0E085DD8A0EEEF1AF0B9
:1035D800F0EF1AF027EF1BF000510111021103114F
:1035E800D8A4F9EF1AF0FCEF1AF0010EFDEF1AF06B
:1035F800000E0F6F000E006F000E016F000E026FBD
:10360800000E036F0DC10EF130EF1BF00FA10FEF8D
:103618001BF011EF1BF017EF1BF0D8900F310109C9
:103628000F6F19EF1BF0D8900F3300A11EEF1BF09E
:1036380020EF1BF021EF1BF00F8F0335033302330C
:10364800013300330E2B0D510E5DD8A02EEF1BF069
:1036580030EF1BF00AEF1BF00CBD35EF1BF037EF16
:103668001BF077EF1BF00E51D8A43DEF1BF03FEF96
:103678001BF049EF1BF0000E006F000E016F000EEB
:10368800026F000E036F98EF1CF0045100270551DC
:103698000123065102230751032303A156EF1BF010
:1036A80058EF1BF004EF1CF00FA15DEF1BF05FEF6C
:1036B8001BF065EF1BF0D8900F3101090F6F67EF12
:1036C8001BF0D8900F3300A16CEF1BF06EEF1BF0CE
:1036D8006FEF1BF00F8F03350333023301330033D1
:1036E8000E2B04EF1CF00451005D055101590651E1
:1036F80002590351800A086F0751800A0859D8B047
:1037080088EF1BF08AEF1BF0B5EF1BF00051045D4A
:10371800086F01510559096F025106590A6F035183
:1037280007590B6FFF0E0825006FFF0E0921016F67
:10373800FF0E0A21026FFF0E0B21036F800E0C1B78
:103748000F6D0F51D8A4ABEF1BF0ADEF1BF0BDEF21
:103758001BF0010E0027000E012302230323BDEFF7
:103768001BF00451005F0551015B0651025B0751D4
:10377800035B0051011102110311D8A4C6EF1BF01D
:10378800C8EF1BF0FDEF1BF00F51D8A4CEEF1BF0D4
:10379800D0EF1BF0FDEF1BF0000E006F000E016F65
:1037A800000E026F000E036F98EF1CF0D8900037E0
:1037B8000137023703370FAFE4EF1BF0E6EF1BF0DA
:1037C800E7EF1BF000810FA1ECEF1BF0EEEF1BF011
:1037D800F2EF1BF0D8800F37F4EF1BF0D8900F37BB
:1037E8000E51D8B4FAEF1BF0FCEF1BF0FDEF1BF005
:1037F8000E0702AF02EF1CF004EF1CF0DAEF1BF02B
:10380800000E0D6F0FAF0BEF1CF00DEF1CF025EF46
:103818001CF00FC108F17F0E0817D8B416EF1CF082
:1038280018EF1CF01CEF1CF0010E0D6F25EF1CF0BB
:1038380000A121EF1CF023EF1CF025EF1CF018EF7E
:103848001CF00D51D8B42BEF1CF02DEF1CF058EFE5
:103858001CF0010E0027000E01230223032303A1FD
:1038680038EF1CF03AEF1CF058EF1CF000C108F1DB
:1038780001C109F102C10AF103C10BF10B350B3388
:103888000A330933083308C100F109C101F10AC13B
:1038980002F10BC103F10E29D8B455EF1CF057EF14
:1038A8001CF058EF1CF00E2B0E29D8B45EEF1CF05C
:1038B80060EF1CF068EF1CF00E51D8A466EF1CF006
:1038C80068EF1CF07AEF1CF0000E006F000E016F1D
:1038D800000E026F000E036F0E51D8A476EF1CF095
:1038E80078EF1CF07AEF1CF0000E0C6F0EA17FEF42
:1038F8001CF081EF1CF084EF1CF0028F85EF1CF0A8
:10390800029FD8900E31036F0CAF8DEF1CF08FEF34
:103918001CF090EF1CF0038F00C100F101C101F110
:1039280002C102F103C103F112000450800B0D6EB5
:10393800045004240F6E03AEA4EF1CF0A6EF1CF095
:10394800A7EF1CF00F800F50D8B4ADEF1CF0AFEF0D
:103958001CF0C4EF1CF00F28D8A4B5EF1CF0B7EF8B
:103968001CF0BFEF1CF0000E016E000E026E000E80
:10397800036E000E046E038E000E046ECCEF1CF076
:10398800000E016E000E026E000E036E000E046E35
:103998000850800B0E6E0D500E18D8B4D6EF1CF0E0
:1039A800D8EF1CF0D9EF1CF00D8C085008240E6ECF
:1039B80007AEE1EF1CF0E3EF1CF0E4EF1CF00E8023
:1039C8000E50D8B4EAEF1CF0ECEF1CF001EF1DF03C
:1039D8000E28D8A4F2EF1CF0F4EF1CF0FCEF1CF05A
:1039E800000E056E000E066E000E076E000E086EC5
:1039F800078E000E086E09EF1DF0000E056E000E12
:103A0800066E000E076E000E086E0F500E5CD8B0E2
:103A180010EF1DF012EF1DF039EF1DF00DAC17EF90
:103A28001DF019EF1DF01BEF1DF0800E0D1A0FC0D1
:103A380010F00EC00FF010C00EF001C010F005C05D
:103A480001F010C005F002C010F006C002F010C06E
:103A580006F003C010F007C003F010C007F004C060
:103A680010F008C004F010C008F0000E106E0F50DF
:103A78000EC009F00A6A095E000E0A5A0ABE4EEF25
:103A88001DF00A5009E11A0E095CD8A04EEF1DF08E
:103A980050EF1DF087EF1DF00150021003100410C5
:103AA800D8A459EF1DF05CEF1DF0010E5DEF1DF07D
:103AB800000E106E000E016E000E026E000E036EF8
:103AC800000E046E0EC00FF090EF1DF010A06FEF07
:103AD8001DF071EF1DF077EF1DF0D890103001093F
:103AE800106E79EF1DF0D890103201A07EEF1DF016
:103AF80080EF1DF081EF1DF0108E04340432033284
:103B0800023201320F2A0E500F5CD8A08EEF1DF042
:103B180090EF1DF06AEF1DF00DBC95EF1DF097EFCB
:103B28001DF0D7EF1DF00F50D8A49DEF1DF09FEFAB
:103B38001DF0A9EF1DF0000E016E000E026E000EC2
:103B4800036E000E046EF8EF1EF0055001260650B5
:103B58000222075003220850042204A0B6EF1DF0E9
:103B6800B8EF1DF064EF1EF010A0BDEF1DF0BFEF21
:103B78001DF0C5EF1DF0D89010300109106EC7EF89
:103B88001DF0D890103201A0CCEF1DF0CEEF1DF043
:103B9800CFEF1DF0108E04340432033202320132AA
:103BA8000F2A64EF1EF00550015C065002580750BA
:103BB80003580450800A096E0850800A0958D8B082
:103BC800E8EF1DF0EAEF1DF015EF1EF00150055C5F
:103BD800096E025006580A6E035007580B6E0450BF
:103BE80008580C6EFF0E0924016EFF0E0A20026EA3
:103BF800FF0E0B20036EFF0E0C20046E800E0D1AB4
:103C0800106C1050D8A40BEF1EF00DEF1EF01DEF36
:103C18001EF0010E0126000E0222032204221DEFCF
:103C28001EF00550015E0650025A0750035A08500C
:103C3800045A0150021003100410D8A426EF1EF0F5
:103C480028EF1EF05DEF1EF01050D8A42EEF1EF0E6
:103C580030EF1EF05DEF1EF0000E016E000E026EDA
:103C6800000E036E000E046EF8EF1EF0D8900136B9
:103C780002360336043610AE44EF1EF046EF1EF04F
:103C880047EF1EF0018010A04CEF1EF04EEF1EF023
:103C980052EF1EF0D880103654EF1EF0D890103630
:103CA8000F50D8B45AEF1EF05CEF1EF05DEF1EF017
:103CB8000F0603AE62EF1EF064EF1EF03AEF1EF03F
:103CC800000E0E6E10AE6BEF1EF06DEF1EF085EF5E
:103CD8001EF010C009F07F0E0916D8B476EF1EF05A
:103CE80078EF1EF07CEF1EF0010E0E6E85EF1EF0D1
:103CF80001A081EF1EF083EF1EF085EF1EF078EF34
:103D08001EF00E50D8B48BEF1EF08DEF1EF0B8EFFA
:103D18001EF0010E0126000E02220322042204A036
:103D280098EF1EF09AEF1EF0B8EF1EF001C009F0F0
:103D380002C00AF003C00BF004C00CF00C340C32C3
:103D48000B320A32093209C001F00AC002F00BC076
:103D580003F00CC004F00F28D8B4B5EF1EF0B7EF8D
:103D68001EF0B8EF1EF00F2A0F28D8B4BEEF1EF0D1
:103D7800C0EF1EF0C8EF1EF00F50D8A4C6EF1EF01B
:103D8800C8EF1EF0DAEF1EF0000E016E000E026E94
:103D9800000E036E000E046E0F50D8A4D6EF1EF06E
:103DA800D8EF1EF0DAEF1EF0000E0D6E0FA0DFEF59
:103DB8001EF0E1EF1EF0E4EF1EF0038EE5EF1EF0BB
:103DC800039ED8900F30046E0DAEEDEF1EF0EFEFAE
:103DD8001EF0F0EF1EF0048E01C001F002C002F0E8
:103DE80003C003F004C004F0120001010351800B6A
:103DF8000C6F03510325126F02AF05EF1FF007EF99
:103E08001FF008EF1FF012811251D8B40EEF1FF007
:103E180010EF1FF023EF1FF01229D8A416EF1FF0A0
:103E280018EF1FF020EF1FF0000E006F000E016F5B
:103E3800000E026F000E036F028F2BEF1FF0000EB3
:103E4800006F000E016F000E026F000E036F075126
:103E5800800B0C1B07510725116F06AF36EF1FF0BB
:103E680038EF1FF039EF1FF011811151D8B43FEF2F
:103E78001FF041EF1FF054EF1FF01129D8A447EFAE
:103E88001FF049EF1FF051EF1FF0000E046F000EF6
:103E9800056F000E066F000E076F068F5CEF1FF0B0
:103EA800000E046F000E056F000E066F000E076F00
:103EB8001151D8B462EF1FF064EF1FF06CEF1FF0E0
:103EC8001251D8A46AEF1FF06CEF1FF076EF1FF0C5
:103ED800000E006F000E016F000E026F000E036FE0
:103EE8000EEF21F006510003F3CF17F1F4CF18F1CC
:103EF80017510D6F0E6B0F6B106B1851136F146BFE
:103F0800156B166B05510103F3CF17F1F4CF18F1B8
:103F180017510D27000E0E230F23102318511327B6
:103F2800000E14231523162304510203F3CF17F1AF
:103F3800F4CF18F117510D27000E0E230F2310236D
:103F480018511327000E1423152316230FC110F13F
:103F58000EC10FF10DC10EF10D6B04510103F3CF2A
:103F680017F1F4CF18F117510D2718510E23000E31
:103F78000F23000E102305510003F3CF17F1F4CFE0
:103F880018F117510D2718510E23000E0F23000E9C
:103F980010230FC110F10EC10FF10DC10EF10D6B01
:103FA80004510003F3CF17F1F4CF18F117510D277F
:103FB80018510E23000E0F23000E10230651010383
:103FC800F3CF17F1F4CF18F1175113271851142311
:103FD800000E1523000E162305510203F3CF17F127
:103FE800F4CF18F11751132718511423000E152375
:103FF800000E162306510203F3CF17F1F4CF18F180
:104008001751086F1851096F0A6B0B6B0AC10BF136
:1040180009C10AF108C109F1086B085113270951B0
:1040280014230A5115230B5116230DC108F10EC193
:1040380009F10FC10AF110C10BF1190E29EF20F097
:10404800D8900B330A3309330833E82E24EF20F0D5
:1040580008511327095114230A5115230B5116230C
:104068000FC110F10EC10FF10DC10EF10D6B115101
:1040780012C108F1096B0827000E0923820E0825D2
:10408800176FFF0E0921186F5FEF20F0D8901337D4
:1040980014371537163710AF54EF20F056EF20F0CD
:1040A80057EF20F01381D8900D370E370F371037A0
:1040B8001707D8A0180715AF64EF20F066EF20F0B7
:1040C8004AEF20F0000E116F10AF6DEF20F06FEF88
:1040D80020F093EF20F0FF0E0D15086FFF0E0E1560
:1040E800096FFF0E0F150A6F7F0E10150B6F085121
:1040F80009110A110B11D8B484EF20F086EF20F0D3
:104108008AEF20F0010E116F93EF20F013A18FEFCB
:1041180020F091EF20F093EF20F086EF20F011517E
:10412800D8B499EF20F09BEF20F0BFEF20F0010EFC
:104138001327000E14231523162316A1A6EF20F02B
:10414800A8EF20F0BFEF20F013C108F114C109F166
:1041580015C10AF116C10BF10B350B330A330933BC
:10416800083308C113F109C114F10AC115F10BC1D3
:1041780016F1174B182B18BFCAEF20F0185108E199
:104188001729D8A0CAEF20F0CCEF20F0D6EF20F006
:10419800000E136F000E146F800E156F7F0E166FD2
:1041A80004EF21F018BFE3EF20F0185106E11705DE
:1041B800D8B0E1EF20F0E3EF20F0EFEF20F0000EB1
:1041C800136F000E146F000E156F000E166F000EA1
:1041D8000C6F04EF21F017C112F1FF0E1317FF0E39
:1041E80014177F0E1517000E161712A1FEEF20F0F8
:1041F80000EF21F001EF21F0158FD8901231166FE2
:104208000C51161313C100F114C101F115C102F1CB
:1042180016C103F112000450800B0D6E04500424E3
:10422800136E03AE1AEF21F01CEF21F01DEF21F001
:1042380013801350D8B423EF21F025EF21F038EF85
:1042480021F01328D8A42BEF21F02DEF21F035EF22
:1042580021F0000E016E000E026E000E036E000EBD
:10426800046E038E40EF21F0000E016E000E026E08
:10427800000E036E000E046E0850800B0D1A0850D5
:104288000824126E07AE4BEF21F04DEF21F04EEFF0
:1042980021F012801250D8B454EF21F056EF21F0DB
:1042A80069EF21F01228D8A45CEF21F05EEF21F02D
:1042B80066EF21F0000E056E000E066E000E076E0A
:1042C800000E086E078E71EF21F0000E056E000ECD
:1042D800066E000E076E000E086E1250D8B477EF07
:1042E80021F079EF21F081EF21F01350D8A47FEF6E
:1042F80021F081EF21F08BEF21F0000E016E000E0E
:10430800026E000E036E000E046E23EF23F00750BA
:104318000102F3CF18F0F4CF19F018500E6E0F6A9F
:10432800106A116A1950146E156A166A176A0650CF
:104338000202F3CF18F0F4CF19F018500E26000E31
:104348000F221022112219501426000E15221622AF
:10435800172205500302F3CF18F0F4CF19F01850C4
:104368000E26000E0F221022112219501426000EBC
:1043780015221622172210C011F00FC010F00EC01F
:104388000FF00E6A05500202F3CF18F0F4CF19F0BF
:1043980018500E2619500F22000E1022000E11225E
:1043A80006500102F3CF18F0F4CF19F018500E267A
:1043B80019500F22000E1022000E112210C011F009
:1043C8000FC010F00EC00FF00E6A05500102F3CFB7
:1043D80018F0F4CF19F018500E2619500F22000EBD
:1043E8001022000E112207500202F3CF18F0F4CF6A
:1043F80019F01850142619501522000E1622000E16
:10440800172206500302F3CF18F0F4CF19F0185012
:10441800142619501522000E1622000E17220750D6
:104428000302F3CF18F0F4CF19F01850096E1950A1
:104438000A6E0B6A0C6A0BC00CF00AC00BF009C0BC
:104448000AF0096A095014260A5015220B50162240
:104458000C5017220EC009F00FC00AF010C00BF064
:1044680011C00CF0190E3EEF22F0D8900C320B322E
:104478000A320932E82E39EF22F0095014260A5080
:1044880015220B5016220C50172210C011F00FC025
:1044980010F00EC00FF00E6A125013C009F00A6A2D
:1044A8000926000E0A22820E0924186EFF0E0A2021
:1044B800196E74EF22F0D890143615361636173662
:1044C80011AE69EF22F06BEF22F06CEF22F014804E
:1044D800D8900E360F36103611361806D8A01906A1
:1044E80016AE79EF22F07BEF22F05FEF22F0000E9C
:1044F800126E11AE82EF22F084EF22F0A8EF22F0C4
:10450800FF0E0E14096EFF0E0F140A6EFF0E101424
:104518000B6E7F0E11140C6E09500A100B100C1044
:10452800D8B499EF22F09BEF22F09FEF22F0010E12
:10453800126EA8EF22F014A0A4EF22F0A6EF22F04A
:10454800A8EF22F09BEF22F01250D8B4AEEF22F081
:10455800B0EF22F0D4EF22F0010E1426000E15223F
:104568001622172217A0BBEF22F0BDEF22F0D4EFDE
:1045780022F014C009F015C00AF016C00BF017C0DD
:104588000CF00C340C320B320A32093209C014F028
:104598000AC015F00BC016F00CC017F0184A192AFB
:1045A80019BEDFEF22F0195008E11828D8A0DFEF74
:1045B80022F0E1EF22F0EBEF22F0000E146E000E75
:1045C800156E800E166E7F0E176E19EF23F019BE4A
:1045D800F8EF22F0195006E11804D8B0F6EF22F0EF
:1045E800F8EF22F004EF23F0000E146E000E156EA3
:1045F800000E166E000E176E000E0D6E19EF23F0EA
:1046080018C013F0FF0E1416FF0E15167F0E16169F
:10461800000E171613A013EF23F015EF23F016EF73
:1046280023F0168ED8901330176E0D50171214C041
:1046380001F015C002F016C003F017C004F0120014
:1046480078C1D9FF79C1DAFFDECFF6FFDDCFF7FFFA
:104658000800F550250AD8A434EF23F036EF23F0EC
:1046680021EF25F078C1D9FF79C1DAFFDE2A000EE3
:10467800DD22000E0101BA6F000EB96FB9C1BDF19C
:10468800BB69BC6978C106F179C107F17AC108F143
:104698007BC109F179EC37F006C1B9F107C1BAF16C
:1046A8000101BABF5CEF23F05AEF23F061EF23F06A
:1046B800BD81B96DBA1FD8B0BA2B78C1D9FF79C1FD
:1046C800DAFFDECFF6FFDDCFF7FF0800F5502E0A40
:1046D800D8A471EF23F073EF23F088EF23F078C1AB
:1046E800D9FF79C1DAFFDE2A000EDD2278C106F192
:1046F80079C107F17AC108F17BC109F179EC37F08A
:1047080006C1BBF107C1BCF178C1D9FF79C1DAFF95
:10471800DECF85F1DDCF86F185C1F6FF86C1F7FFD3
:104728000800F550640AD8B49CEF23F09EEF23F0FC
:10473800ACEF23F085C1F6FF86C1F7FF0800F550FE
:10474800690AD8A4AAEF23F0ACEF23F0DBEF23F03B
:104758007AC1D9FF7BC1DAFFDFCF7CF1020EDE26FA
:10476800DFCF7DF1000EDD227CC1D9FF7DC1DAFFEC
:10477800DECF80F1DDCF81F1010E010185257C6F4F
:10478800000E86217D6F78C1D9FF79C1DAFF7CC11F
:10479800DEFF7DC1DDFF76C11BF177C11CF180C151
:1047A8001DF181C11EF17CEC2FF036EF25F078C1A8
:1047B800D9FF79C1DAFFDECFF6FFDDCFF7FF0800BA
:1047C800F550730AD8B4EBEF23F0EDEF23F00AEFBE
:1047D80024F078C1D9FF79C1DAFFDECF00F1DDCF4F
:1047E80001F1F30E0101026FFF0E036F000E056F5A
:1047F800030E046F34EC36F0010100510111D8A406
:1048080008EF24F00AEF24F04CEF24F078C1D9FF28
:1048180079C1DAFFDECFF6FFDDCFF7FF0800F550EC
:10482800730AD8B41AEF24F01CEF24F023EF24F015
:10483800000E01017F6F030E7E6F28EF24F0000E3B
:1048480001017F6F010E7E6F78C1D9FF79C1DAFF50
:104858007E51DE267F51DD2276C109F177C10AF14A
:104868007AC1D9FF7BC1DAFFDFCF7CF1020EDE26E9
:10487800DFCF7DF1000EDD227CC1D9FF7DC1DAFFDB
:10488800DECF0BF1DDCF0CF1ADEC2EF036EF25F0DD
:1048980078C1D9FF79C1DAFFDECF85F1DDCF86F1A6
:1048A80085C1F6FF86C1F7FF0800F5CF84F169EFEF
:1048B80024F0854B862B82EF24F06C0E846F82EFF8
:1048C80024F0000E846F82EF24F084517C6F7D6B9E
:1048D8007D51000AD8B473EF24F065EF24F07C51C1
:1048E8004C0AD8B45DEF24F02A0AD8B461EF24F05A
:1048F8000A0AD8B45DEF24F065EF24F085C1F6FF0D
:1049080086C1F7FF0800F550660AD8A48EEF24F098
:1049180090EF24F018EF25F0C6EF24F07AC1D9FF04
:104928007BC1DAFFDFCF7CF1040EDE26DFCF7DF11D
:10493800000EDD227CC1D9FF7DC1DAFFDECF80F118
:10494800DECF81F1DECF82F1DECF83F1DBEF24F021
:104958007AC1D9FF7BC1DAFFDFCF7CF1040EDE26F6
:10496800DFCF7DF1000EDD227CC1D9FF7DC1DAFFEA
:10497800DECF80F1DECF81F1DECF82F1DECF83F1B1
:10498800DBEF24F084517C6F7D6B7D51000AD8B435
:10499800D0EF24F0DBEF24F07C514C0AD8B4ACEF14
:1049A80024F0200AD8B492EF24F0DBEF24F0010EB3
:1049B80085257C6F000E86217D6F78C1D9FF79C16E
:1049C800DAFF7CC1DEFF7DC1DDFF02EF25F076C195
:1049D80041F177C142F180C143F181C144F182C103
:1049E80045F183C146F185C1F6FF86C1F7FF08008E
:1049F800F5CF47F150EC10F036EF25F085C1F6FF02
:104A080086C1F7FF0800F5507C6F7D6B7D51000A69
:104A1800D8B411EF25F018EF25F07C51660AD8B408
:104A2800EBEF24F018EF25F078C1D9FF79C1DAFF50
:104A3800DE2A000EDD2236EF25F078C1D9FF79C1D4
:104A4800DAFFDECFF6FFDDCFF7FF0800F5500101F2
:104A5800006F016B76C102F177C103F113EC37F0F7
:104A680018EF25F0120082C0D9FF83C0DAFFDECF2D
:104A7800F6FFDDCFF7FF0800F550250AD8A447EF69
:104A880025F049EF25F033EF27F082C0D9FF83C026
:104A9800DAFFDE2A000EDD22000E0101BA6F000ED9
:104AA800B96FB9C1BDF1BB69BC6982C007F083C0E9
:104AB80008F084C009F085C00AF0A6EC38F007C0F9
:104AC800B9F108C0BAF10101BABF6FEF25F06DEF77
:104AD80025F074EF25F0BD81B96DBA1FD8B0BA2B97
:104AE80082C0D9FF83C0DAFFDECFF6FFDDCFF7FF44
:104AF8000800F5502E0AD8A484EF25F086EF25F09B
:104B08009BEF25F082C0D9FF83C0DAFFDE2A000EB2
:104B1800DD2282C007F083C008F084C009F085C098
:104B28000AF0A6EC38F007C0BBF108C0BCF182C09F
:104B3800D9FF83C0DAFFDECF8DF0DDCF8EF08DC0D8
:104B4800F6FF8EC0F7FF0800F550640AD8B4AFEF3F
:104B580025F0B1EF25F0BFEF25F08DC0F6FF8EC030
:104B6800F7FF0800F550690AD8A4BDEF25F0BFEF9C
:104B780025F0EEEF25F084C0D9FF85C0DAFFDFCF3E
:104B88007CF0020EDE26DFCF7DF0000EDD227CC039
:104B9800D9FF7DC0DAFFDECF88F0DDCF89F0010EC6
:104BA80000018D257C6E000E8E217D6E82C0D9FF9E
:104BB80083C0DAFF7CC0DEFF7DC0DDFF80C01CF053
:104BC80081C01DF088C01EF089C01FF014EC31F0C0
:104BD80047EF27F082C0D9FF83C0DAFFDECFF6FFA8
:104BE800DDCFF7FF0800F550730AD8B4FEEF25F0C3
:104BF80000EF26F01BEF26F082C0D9FF83C0DAFF52
:104C0800DECF01F0DDCF02F0F30E036EFF0E046E6F
:104C1800000E066E030E056EA4EC36F0015002106D
:104C2800D8A419EF26F01BEF26F05DEF26F082C01E
:104C3800D9FF83C0DAFFDECFF6FFDDCFF7FF08002C
:104C4800F550730AD8B42BEF26F02DEF26F034EF89
:104C580026F0000E0001876F030E866F39EF26F0ED
:104C6800000E0001876F010E866F82C0D9FF83C0D6
:104C7800DAFF8651DE268751DD2280C00AF081C026
:104C88000BF084C0D9FF85C0DAFFDFCF7CF0020EBD
:104C9800DE26DFCF7DF0000EDD227CC0D9FF7DC08F
:104CA800DAFFDECF0CF0DDCF0DF049EC30F047EF46
:104CB80027F082C0D9FF83C0DAFFDECF8DF0DDCFC9
:104CC8008EF08DC0F6FF8EC0F7FF0800F5CF8CF090
:104CD8007AEF26F08D4B8E2B94EF26F06C0E8C6FAE
:104CE80094EF26F0000E8C6F94EF26F000018C51A3
:104CF8007C6E7D6A7D50000AD8B485EF26F076EF89
:104D080026F07C504C0AD8B46EEF26F02A0AD8B4A4
:104D180072EF26F00A0AD8B46EEF26F076EF26F086
:104D28008DC0F6FF8EC0F7FF0800F550660AD8A4BC
:104D3800A0EF26F0A2EF26F02AEF27F0D8EF26F012
:104D480084C0D9FF85C0DAFFDFCF7CF0040EDE26F1
:104D5800DFCF7DF0000EDD227CC0D9FF7DC0DAFFF9
:104D6800DECF88F0DECF89F0DECF8AF0DECF8BF0A1
:104D7800EDEF26F084C0D9FF85C0DAFFDFCF7CF0E5
:104D8800040EDE26DFCF7DF0000EDD227CC0D9FFC9
:104D98007DC0DAFFDECF88F0DECF89F0DECF8AF083
:104DA800DECF8BF0EDEF26F08C517C6E7D6A7D5066
:104DB800000AD8B4E2EF26F0EDEF26F07C504C0A5A
:104DC800D8B4BEEF26F0200AD8B4A4EF26F0EDEF51
:104DD80026F0010E8D257C6E000E8E217D6E82C020
:104DE800D9FF83C0DAFF7CC0DEFF7DC0DDFF14EF92
:104DF80027F080C047F081C048F088C049F089C0DA
:104E08004AF08AC04BF08BC04CF08DC0F6FF8EC0C4
:104E1800F7FF0800F5CF4DF050EC15F047EF27F0FD
:104E28008DC0F6FF8EC0F7FF0800F5507C6E7D6AD6
:104E38007D50000AD8B423EF27F02AEF27F07C50E2
:104E4800660AD8B4FDEF26F02AEF27F082C0D9FF12
:104E580083C0DAFFDE2A000EDD2247EF27F082C08A
:104E6800D9FF83C0DAFFDECFF6FFDDCFF7FF0800FA
:104E7800F550016E026A80C003F081C004F0DEECD8
:104E880037F02AEF27F0120001011751800B246F29
:104E9800175117252B6F16AF54EF27F056EF27F051
:104EA80057EF27F02B812B51D8B45DEF27F05FEF38
:104EB80027F074EF27F02B29D8A465EF27F067EFC8
:104EC80027F06FEF27F0000E146F000E156F000E1D
:104ED800166F000E176F168F000E176F7CEF27F0F6
:104EE800000E146F000E156F000E166F000E176F70
:104EF8001B51800B241B1B511B252C6F1AAF87EFEE
:104F080027F089EF27F08AEF27F02C812C51D8B4AD
:104F180090EF27F092EF27F0A7EF27F02C29D8A4DD
:104F280098EF27F09AEF27F0A2EF27F0000E186FFE
:104F3800000E196F000E1A6F000E1B6F1A8F000EED
:104F48001B6FAFEF27F0000E186F000E196F000EE1
:104F58001A6F000E1B6F185119111A111B11D8A4C2
:104F6800B8EF27F0BAEF27F0D2EF27F0000E146F52
:104F7800000E156F000E166F000E176F800E1613B9
:104F88007F0E17132451171314C114F115C115F10D
:104F980016C116F117C117F115EF29F02B51D8A436
:104FA800D8EF27F0DAEF27F0E4EF27F0000E146FC0
:104FB800000E156F000E166F000E176F15EF29F013
:104FC8002C512BC11CF11D6B1C5F000E1D5B7F0E4D
:104FD8001C25256F000E1D21266F14C120F115C157
:104FE80021F116C122F117C123F1000E146F000E32
:104FF800156F000E166F000E176F000E276F000E4C
:10500800286F000E296F000E2A6F000E2C6F45EFD7
:1050180028F02C51D8B413EF28F015EF28F02CEF16
:1050280028F0D8902037213722372337D8901437E3
:105038001537163717372AAF24EF28F026EF28F050
:1050480027EF28F01481D8902737283729372A37AF
:105058001851205D195121591A5122591B512359B0
:10506800D8A039EF28F03BEF28F044EF28F02A8D3C
:105078001851205F1951215B1A51225B1B51235B88
:105088002C2B190E2C654BEF28F04DEF28F00DEF67
:1050980028F02051211122112311D8B456EF28F0FD
:1050A80058EF28F070EF28F0278170EF28F0D8909B
:1050B80014371537163717372AAF65EF28F067EF1B
:1050C80028F068EF28F01481D89027372837293737
:1050D8002A372507D8A0260716AF75EF28F077EFEF
:1050E80028F05BEF28F0000E2C6F2AAF7EEF28F037
:1050F80080EF28F0A4EF28F0FF0E27151C6FFF0E95
:1051080028151D6FFF0E29151E6F7F0E2A151F6F9C
:105118001C511D111E111F11D8B495EF28F097EFDF
:1051280028F09BEF28F0010E2C6FA4EF28F014A1B3
:10513800A0EF28F0A2EF28F0A4EF28F097EF28F0CE
:105148002C51D8B4AAEF28F0ACEF28F0D0EF28F013
:10515800010E1427000E15231623172317A1B7EFE6
:1051680028F0B9EF28F0D0EF28F014C11CF115C1D0
:105178001DF116C11EF117C11FF11F351F331E3354
:105188001D331C331CC114F11DC115F11EC116F1CC
:105198001FC117F1254B262B26BFDBEF28F0265120
:1051A80008E12529D8A0DBEF28F0DDEF28F0E8EFAB
:1051B80028F0000E266F2569000E146F000E156F7B
:1051C800000E166F000E176F26BFF5EF28F0265158
:1051D80006E12505D8B0F3EF28F0F5EF28F003EF46
:1051E80029F0000E266F000E256F000E146F000EBA
:1051F800156F000E166F000E176F000E246F25C175
:105208002BF12BA10AEF29F00CEF29F00FEF29F071
:10521800168F10EF29F0169FD8902B31176FC6EF15
:1052280027F012001D50800B2A6E1D501D24316E70
:105238001CAE21EF29F023EF29F024EF29F031806B
:105248003150D8B42AEF29F02CEF29F041EF29F09A
:105258003128D8A432EF29F034EF29F03CEF29F0B7
:10526800000E1A6E000E1B6E000E1C6E000E1D6ED8
:105278001C8E000E1D6E49EF29F0000E1A6E000EEE
:105288001B6E000E1C6E000E1D6E2150800B2A1A1C
:1052980021502124326E20AE54EF29F056EF29F028
:1052A80057EF29F032803250D8B45DEF29F05FEF24
:1052B80029F074EF29F03228D8A465EF29F067EFB8
:1052C80029F06FEF29F0000E1E6E000E1F6E000E03
:1052D800206E000E216E208E000E216E7CEF29F0CC
:1052E800000E1E6E000E1F6E000E206E000E216E48
:1052F8001E501F1020102110D8A485EF29F087EF29
:1053080029F09FEF29F0000E1A6E000E1B6E000E9A
:105318001C6E000E1D6E800E1C127F0E1D122A5070
:105328001D121AC01AF01BC01BF01CC01CF01DC0B7
:105338001DF0E2EF2AF03150D8A4A5EF29F0A7EF2D
:1053480029F0B1EF29F0000E1A6E000E1B6E000E48
:105358001C6E000E1D6EE2EF2AF0325031C022F0B2
:10536800236A225E000E235A7F0E22242B6E000E23
:1053780023202C6E1AC026F01BC027F01CC028F072
:105388001DC029F0000E1A6E000E1B6E000E1C6E5A
:10539800000E1D6E000E2D6E000E2E6E000E2F6E6E
:1053A800000E306E000E326E12EF2AF03250D8B472
:1053B800E0EF29F0E2EF29F0F9EF29F0D89026364E
:1053C800273628362936D8901A361B361C361D360D
:1053D80030AEF1EF29F0F3EF29F0F4EF29F01A805D
:1053E800D8902D362E362F3630361E50265C1F505C
:1053F80027582050285821502958D8A006EF2AF0BD
:1054080008EF2AF011EF2AF0308C1E50265E1F504C
:10541800275A2050285A2150295A322A190E326404
:1054280018EF2AF01AEF2AF0DAEF29F026502710A1
:1054380028102910D8B423EF2AF025EF2AF03DEFE1
:105448002AF02D803DEF2AF0D8901A361B361C36EC
:105458001D3630AE32EF2AF034EF2AF035EF2AF05D
:105468001A80D8902D362E362F3630362B06D8A0F7
:105478002C061CAE42EF2AF044EF2AF028EF2AF05F
:10548800000E326E30AE4BEF2AF04DEF2AF071EF7E
:105498002AF0FF0E2D14226EFF0E2E14236EFF0E1F
:1054A8002F14246E7F0E3014256E225023102410E2
:1054B8002510D8B462EF2AF064EF2AF068EF2AF0DA
:1054C800010E326E71EF2AF01AA06DEF2AF06FEF1D
:1054D8002AF071EF2AF064EF2AF03250D8B477EF4F
:1054E8002AF079EF2AF09DEF2AF0010E1A26000E15
:1054F8001B221C221D221DA084EF2AF086EF2AF011
:105508009DEF2AF01AC022F01BC023F01CC024F023
:105518001DC025F02534253224322332223222C000
:105528001AF023C01BF024C01CF025C01DF02B4A24
:105538002C2A2CBEA8EF2AF02C5008E12B28D8A042
:10554800A8EF2AF0AAEF2AF0B5EF2AF0000E2C6E89
:105558002B68000E1A6E000E1B6E000E1C6E000EDD
:105568001D6E2CBEC2EF2AF02C5006E12B04D8B0D9
:10557800C0EF2AF0C2EF2AF0D0EF2AF0000E2C6E0E
:10558800000E2B6E000E1A6E000E1B6E000E1C6EA7
:10559800000E1D6E000E2A6E2BC031F031A0D7EF21
:1055A8002AF0D9EF2AF0DCEF2AF01C8EDDEF2AF082
:1055B8001C9ED89031301D6E93EF29F01200B1C1B6
:1055C8003DF1B2C13EF1B3C13FF1B4C140F12DC1CB
:1055D8003DF12EC13EF12FC13FF130C140F1810EA6
:1055E8000101316FFF0E326F3DC133F13EC134F11D
:1055F8003FC135F140C136F1180E08EF2BF0D890B5
:105608003633353334333333E82E03EF2BF033514D
:1056180031253B6F000E32213C6F3CBF1DEF2BF054
:105628003C5109E1170E3B5DD8A01DEF2BF01FEF91
:105638002BF029EF2BF02DC12DF12EC12EF12FC10A
:105648002FF130C130F1EDEF2BF03CBF2EEF2BF0F6
:1056580030EF2BF0A1EF2BF03BC131F1FF0E326F91
:10566800FF0E336F7F0E346F000E356F31673FEFDB
:105678002BF047EF2BF035353533343333333233B2
:10568800312F3AEF2BF032C137F133C138F134C141
:1056980039F135C13AF1010137513D15316F3851B2
:1056A8003E15326F39513F15336F3A514015346FFB
:1056B8003151321133113411D8A465EF2BF067EF53
:1056C8002BF069EF2BF01FEF2BF03DC131F13EC1FC
:1056D80032F13FC133F140C134F1200E79EF2BF0A4
:1056E800D8903433333332333133E82E74EF2BF020
:1056F8003151321133113411D8B485EF2BF087EFC3
:105708002BF08FEF2BF037513D2738513E2339517D
:105718003F233A514023371D316F381D326F391DF1
:10572800336F3A1D346F31513D1732513E173351A3
:105738003F1734514017E5EF2BF03DC131F13EC121
:1057480032F13FC133F140C134F1200EB1EF2BF0FB
:10575800D8903433333332333133E82EACEF2BF077
:105768003151321133113411D8A4BDEF2BF0BFEFF2
:105778002BF0C9EF2BF0000E3D6F000E3E6F000EB0
:105788003F6F000E406FE5EF2BF0D8903D35316F3D
:105798003E35326F3F35336F4035346F31513211FA
:1057A80033113411D8B4DBEF2BF0DDEF2BF0E5EF3C
:1057B8002BF0000E3D6F000E3E6F800E3F6FBF0E48
:1057C800406F3DC12DF13EC12EF13FC12FF140C1C7
:1057D80030F11200B1C143F0B2C144F0B3C145F099
:1057E800B4C146F033C043F034C044F035C045F08E
:1057F80036C046F0810E376EFF0E386E43C039F062
:1058080044C03AF045C03BF046C03CF0180E12EFD9
:105818002CF0D8903C323B323A323932E82E0DEF38
:105828002CF039503724416E000E3820426E42BEAB
:1058380027EF2CF0425009E1170E415CD8A027EF62
:105848002CF029EF2CF033EF2CF033C033F034C0B8
:1058580034F035C035F036C036F0F6EF2CF042BEE5
:1058680038EF2CF03AEF2CF0AAEF2CF041C037F0CB
:10587800FF0E386EFF0E396E7F0E3A6E000E3B6ECD
:10588800376649EF2CF051EF2CF03B343B323A327B
:1058980039323832372E44EF2CF038C03DF039C059
:1058A8003EF03AC03FF03BC040F03D504314376EE5
:1058B8003E504414386E3F504514396E40504614DB
:1058C8003A6E3750381039103A10D8A46EEF2CF0D1
:1058D80070EF2CF072EF2CF029EF2CF043C037F06A
:1058E80044C038F045C039F046C03AF0200E82EF87
:1058F8002CF0D8903A32393238323732E82E7DEFF0
:105908002CF03750381039103A10D8B48EEF2CF0EC
:1059180090EF2CF098EF2CF03D5043263E50442257
:105928003F504522405046223D1C376E3E1C386E83
:105938003F1C396E401C3A6E375043163850441697
:10594800395045163A504616EEEF2CF043C037F062
:1059580044C038F045C039F046C03AF0200EBAEFDE
:105968002CF0D8903A32393238323732E82EB5EF47
:105978002CF03750381039103A10D8A4C6EF2CF054
:10598800C8EF2CF0D2EF2CF0000E436E000E446EE0
:10599800000E456E000E466EEEEF2CF0D8904334A4
:1059A800376E4434386E4534396E46343A6E375063
:1059B800381039103A10D8B4E4EF2CF0E6EF2CF098
:1059C800EEEF2CF0000E436E000E446E800E456E16
:1059D800BF0E466E43C033F044C034F045C035F0C6
:1059E80046C036F0120001010E6F01010E51D8B405
:1059F80000EF2DF002EF2DF024EF2DF009BF09EF95
:105A08002DF007EF2DF024EF2DF006C10AF107C1A4
:105A18000BF108C10CF109C10DF10A1F0B1F0C1F76
:105A28000D1F0A2B000E0B230C230D230AC110F1A6
:105A38000BC111F10CC112F10DC113F12CEF2DF0B6
:105A480006C110F107C111F108C112F109C113F122
:105A58000651071108110911D8A435EF2DF037EFB9
:105A68002DF041EF2DF0000E066F000E076F000EAF
:105A7800086F000E096FD2EF2DF0960E0F6F4BEFE7
:105A88002DF00F2BD8901333123311331033000E2F
:105A980010150A6F000E11150B6F000E12150C6F02
:105AA800FE0E13150D6F0A510B110C110D11D8A410
:105AB80060EF2DF062EF2DF045EF2DF070EF2DF037
:105AC8000F2B010E1027000E112312231323D89039
